:020000040800F2
:1000000050080020990100085F1C00088B1A0008A6
:100010005D1C0008AF060008C926000800000000AB
:100020000000000000000000000000001523000890
:10003000B106000800000000DD21000817230008B9
:10004000B3010008B3010008B3010008B3010008C0
:10005000B3010008B3010008B3010008B3010008B0
:10006000B3010008B3010008B3010008B3010008A0
:10007000B3010008B3010008B3010008B301000890
:10008000B3010008B3010008B3010008B301000880
:10009000B3010008B3010008B3010008B301000870
:1000A000B3010008B3010008B3010008B301000860
:1000B000B3010008B3010008B3010008B301000850
:1000C000B3010008B3010008B3010008B301000840
:1000D000B3010008B3010008B3010008B301000830
:1000E000B3010008B3010008B301000800F002F8F2
:1000F00000F042F80AA090E8000C82448344AAF180
:100100000107DA4501D100F037F8AFF2090EBAE87D
:100110000F0013F0010F18BFFB1A43F0010318473B
:100120006830000088300000103A24BF78C878C1D9
:10013000FAD8520724BF30C830C144BF04680C60ED
:10014000704700000023002400250026103A28BF35
:1001500078C1FBD8520728BF30C148BF0B60704739
:10016000642900F07580782900F0AE800020704787
:100170001FB51FBD10B510BD00F05FFA1146FFF7A7
:10018000F7FF02F0B9FA00F07DFA03B4FFF7F2FFCF
:1001900003BC00F085FA0000094880470948004781
:1001A000FEE7FEE7FEE7FEE7FEE7FEE7FEE7FEE727
:1001B000FEE7FEE704480549054A064B7047000084
:1001C00079230008ED0000085002002050080020AC
:1001D00050040020500400200FB41CB5074B06AAA1
:1001E0007B4469460090059800F00FFA00206946AC
:1001F00000F01EFA1CBC5DF814FB00004D0400006A
:1002000070B5044685690068C10601D5302600E056
:100210002026C00707D070BDD4E9012130469047A1
:10022000206A401C20626D1EF6D570BD70B5044674
:1002300085690078C00707D170BDD4E9012120206D
:100240009047206A401C20626D1EF6D570BD0000EC
:100250002DE9F0410646002410687529314616A59F
:1002600010D0AFF30080002802DA404213A507E067
:1002700031688A0701D512A502E0490704D511A506
:10028000012401E0AFF3008000210A2206F12407D7
:1002900009E0B0FBF2FCB0FBF2F302FB1C003030D3
:1002A00078541846491C0028F3D123462A46304684
:1002B000BDE8F04100F04BB9000000002D00000047
:1002C0002B0000002000000070B504460D462146BA
:1002D0001068AFF300802188090502D50F4A7A44DF
:1002E00002E00E4A7A440E32002104F1240305E0B4
:1002F00000F00F060009965D5E54491C0028F7D1F6
:1003000020780023000704D5702D02D009B1022304
:1003100011322046BDE8704000F019B9912D00005F
:100320002DE9F05F894604464FF0000ADFF824B15A
:10033000FB44C0F820A02046E168884700287DD013
:10034000252806D0D4E901219047206A401C20626C
:10035000F1E700255F462046E168884720280646E9
:1003600007DB312E05D2B81910F8200C08B105436F
:10037000F1E7A80701D525F00405C4F81CA0002763
:10038000C4F818A02A2E09D0304602F0AEF938B3CE
:1003900004EB8708303EC8F8186019E059F8041BD0
:1003A000204604EB87029161E1688847012F0646E9
:1003B00018D1E069002820DA25F020051DE0D8F8E2
:1003C000180000EB800006EB40003038C8F8180039
:1003D0002046E1688847064602F087F90028EED1FA
:1003E000012F0AD02E2E08D12046E16888477F1CB5
:1003F0000646022F45F02005C4DBA069002803DA79
:10040000404245F00105A061E80701D025F0100544
:10041000A6B1A6F14100192802D8203645F400659E
:100420004A463146204625604D46FFF799FE60B1A9
:10043000012807D0ED1D25F0070000E007E000F1DE
:10044000080978E705F1040975E730467AE7206A7C
:10045000BDE8F09F672D000010B5431C02E010F8C6
:10046000011B71B18107FAD14FF0013202C88C1A19
:100470008C4314EAC211F9D0C01A0A0603D0C01E78
:1004800010BDC01A10BD0A0401D0801E10BD0902A3
:10049000FCD0401E10BD10B5203AC0F00B80B1E872
:1004A0001850203AA0E81850B1E81850A0E81850A9
:1004B000BFF4F5AF5FEA027C24BFB1E81850A0E8B2
:1004C000185044BF18C918C0BDE810405FEA827CCC
:1004D00024BF51F8043B40F8043B08BF7047D207E3
:1004E00028BF31F8023B48BF11F8012B28BF20F884
:1004F000023B48BF00F8012B70474FF0000200B5E7
:10050000134694469646203922BFA0E80C50A0E836
:100510000C50B1F12001BFF4F7AF090728BFA0E8E4
:100520000C5048BF0CC05DF804EB890028BF40F8B0
:10053000042B08BF704748BF20F8022B11F0804FF2
:1005400018BF00F8012B70477047704770472DE9BE
:10055000F0470D4699469246044600F1240801688A
:10056000880604D5E06921F01001216000E0012037
:10057000A84201DD471B00E00027A1697A1902EBC0
:100580000900081AA0612078C00602D42046FFF7AF
:1005900037FE002608E0D4E901211AF8060090474A
:1005A000206A401C761C20624E45F4DB2078C00691
:1005B0000AD52046FFF724FE06E0D4E901213020C9
:1005C0009047206A401C2062381EA7F10107F4DC26
:1005D00007E0D4E9012118F805009047206A401C83
:1005E0002062281EA5F10105F3DC2046FFF71EFE60
:1005F0002078000602D50220BDE8F0870120FBE745
:1006000001694A1C02610878704700B58FB0CDE9D6
:1006100001310021059105497944CDE903101146C6
:100620006846FFF77DFE0FB000BD0000E5FFFFFF4D
:100630000A6802F8010B0A607047754600F02CF852
:10064000AE4605006946534620F00700854618B0BF
:1006500020B5FFF7AFFDBDE820404FF000064FF09A
:1006600000074FF000084FF0000B21F00701AC46E7
:10067000ACE8C009ACE8C009ACE8C009ACE8C00906
:100680008D46704710B50446AFF300802046BDE8A4
:100690001040FFF77ABD000000487047EC010020D1
:1006A00001491820ABBEFEE7260002007047FEE7B6
:1006B0007047000070B5044600F00CF90546601C58
:1006C00002D004480078044400F004F9401BA04222
:1006D000FAD370BD080000202DE9F84FDFF8B8917B
:1006E0000024A9F1040B23460F2709F1040AABF1FA
:1006F000040EC9E00125A5402A40AA427DD1674EDB
:10070000D1F804C0ACEB0608B44532D014DCBCF11F
:10071000030F3AD009DCBCF1000F2AD0BCF1010F65
:100720001CD0BCF1020F31D11DE0BCF1110F17D06C
:10073000BCF1120F2AD119E0B8F5881F19D006DCD8
:10074000B8F5803F15D0B8F5801F1FD111E0B8F57E
:10075000001F0ED0B8F5041F18D10AE0CB6815E0D1
:10076000CB681B1D12E0CB6808330FE0CB680C335D
:100770000CE08B682BB1012B4FF0080303D04561CF
:1007800004E0042302E0056100E00023FF2A01D811
:10079000064601E000F104064FEA840501D9A5F1FF
:1007A0002005D6F8008007FA05FC28EA0C0803FAB1
:1007B00005F548EA0508C6F800804D68ED0062D5E9
:1007C000374DAE6946F00106AE61AD6924F003060F
:1007D00005F001050095334D06EB050CDCF80850DB
:1007E000A607360F07FA06F825EA0805DFF8B880ED
:1007F000404503D14FF0000817E044E0DFF8AC803B
:10080000404502D14FF001080FE0DFF8A4804045D9
:1008100002D14FF0020808E0DFF89880404502D18D
:100820004FF0030801E04FF0040808FA06F848EA20
:100830000508CCF808804D68D9F80060ED024D46F7
:1008400001D5164300E096432E604D68DAF800604B
:10085000AD02554601D5164300E096432E604D6823
:10086000DBF80060AD035D4601D5164300E096431A
:100870002E604D68DEF80060ED03754601D5164325
:1008800000E096432E60641C0D682A46E5407FF424
:1008900031AFBDE8F88F00000804014000001110DE
:1008A000001002400000014000080140000C01401F
:1008B0000010014000140140C26821EA02030A400E
:1008C00043EA0241016170470AB1016170470904BE
:1008D000FBE7000001488068704700000800002026
:1008E0000248816802781144816070470800002046
:1008F000074810B5016841F010010160032000F0C5
:1009000067F80F2000F006F800F024F8002010BD72
:100910000020024070B50D4D04464FF47A712878DE
:10092000B1FBF0F00A490968B1FBF0F000F0B9FD45
:1009300048B9102C07D200222146501E00F028F89A
:1009400000206C6070BD012070BD00000800002018
:10095000140000200C4808B5816941F00101816153
:10096000816901F001010091C16941F08051C161CB
:10097000C06900F0805000900448416821F0E061B7
:1009800041F00071416008BD0010024000000140CC
:10099000F0B40E4B1B680C46C3F30223C3F10705EA
:1009A000042D00D90425191D072901D2002300E0D8
:1009B000DB1E012606FA05F1491E214099409E40A2
:1009C000761E16403143F0BC01F07FBE0CED00E016
:1009D000064900F0070208684FF6FF03184040EA96
:1009E0000220034A10430860704700000CED00E04D
:1009F0000000FA052DE9F0470F46050061D0434E8F
:100A0000306800F00700B84209D2306820F00700D3
:100A100038433060306800F00700B84251D1286890
:100A20003B4C810712D5400703D5606840F4E06075
:100A300060602878000703D5606840F4605060600B
:100A40006068A96820F0F000084360602878C0075B
:100A500028D06868012810D02168022810D08907A2
:100A600000292EDA616821F0030101436160FFF77C
:100A700031FF804641F288390DE021688903EFE7B4
:100A80008901EDE7FFF726FFA0EB0801494502D9F0
:100A90000320BDE8F0876068696800F00C00B0EBE7
:100AA000810FEFD1306800F00700B8420BD93068F1
:100AB00020F0070038433060306800F00700B8428B
:100AC00001D00120E5E72878400705D56068E9688E
:100AD00020F4E060084360602878000706D560686D
:100AE000296920F4605040EAC100606000F038F8E5
:100AF0006168084AC1F30311515CC84006490860A7
:100B000006480068FFF706FF0020C2E70020024009
:100B1000001002404E300008140000200C0000209D
:100B20000448054900684968044AC1F30221515C40
:100B3000C840704714000020001002405E300008DA
:100B40000448054900684968044AC1F3C221515C60
:100B5000C840704714000020001002405E300008BA
:100B60000E4A51680E4801F00C03042B11D0082BDB
:100B70000FD10C48C1F38343C903C05C0AD5516847
:100B8000084AC1F34041921E515C054A5043B0FBF4
:100B9000F1F07047044948437047000000100240DC
:100BA00000127A003E30000800093D002DE9F84FA0
:100BB000040070D02078C04DC00749D06868C0F3E9
:100BC0008100012807D06868C0F38100022809D19C
:100BD0006868C00306D52868800339D56068002896
:100BE000E7D035E06068B0F5803F0BD010B1B0F5CC
:100BF000A02F11D0286820F480302860286820F4C5
:100C0000802002E0286840F480302860606890B15D
:100C1000FFF760FE06460AE0286840F4802028605E
:100C2000F0E700BFFFF756FE801B642873D82868E2
:100C30008003F7D50CE0FFF74DFE064605E000BF48
:100C4000FFF748FE801B6428F0D828688003F7D49B
:100C500020789A4E80074FF001094FF0000839D5EF
:100C6000686810F00C0F07D06868C0F38100022894
:100C700009D16868C00306D42868800714D52069A4
:100C8000012808D110E02069B0B1C6F80090FFF744
:100C900021FE074605E00AE1FFF71CFEC01B022803
:100CA000C4D828688007F7D52868616920F0F80063
:100CB00040EAC10028600DE0C6F80080FFF70AFE98
:100CC000074604E0FFF706FEC01B022823D8286869
:100CD0008007F7D4207800072CD57948A169D9B1CD
:100CE000C0F80090FFF7F6FD074604E0FFF7F2FDBD
:100CF000C01B02280FD8686A8007F7D571484FF4E7
:100D0000FA510068B0FBF1F0009000BF0098411E5E
:100D10000091FAD20EE080E0C0F80080FFF7DAFD23
:100D2000074604E0FFF7D6FDC01B022875D8686AA5
:100D30008007F7D42078400760D5E8690027C00015
:100D400008D4E86940F08050E861E869012700F0C4
:100D5000805000905C480168C90513D4016883463F
:100D600041F480710160FFF7B5FD824606E000BFE7
:100D7000FFF7B0FDA0EB0A0064284ED8DBF80000B6
:100D8000C005F5D5E06801280AD008B1052813D0C0
:100D9000286A20F001002862286A20F0040002E09E
:100DA000286A40F001002862E06841F2883B98B16F
:100DB000FFF790FD82460BE0286A40F004002862AD
:100DC000EEE700BFFFF786FDA0EB0A0159455AD8B0
:100DD000286A8007F6D50CE0FFF77CFD824605E027
:100DE000FFF778FDA0EB0A0159454CD8286A800727
:100DF000F6D41FB1E86920F08050E861E06988B35B
:100E00006968C1F38101022944D00228C6F86080D4
:100E100004D0FFF75FFD044638E034E0FFF75AFDE9
:100E2000074604E0FFF756FDC01B02282BD82868B0
:100E30008001F7D4206AB0F5803F05D16868A168C9
:100E400020F4003008436860D4E908010843696869
:100E500021F4741108436860C6F86090FFF73AFD0A
:100E6000044606E025E000BFFFF734FD001B022822
:100E700009D828688001F7D51BE000BFFFF72AFDDD
:100E8000001B022802D90320BDE8F88F28688001E2
:100E9000F4D40EE00128F7D06868226A00F48031AB
:100EA000914204D1616A00F47010884201D001209F
:100EB000EAE70020E8E7000000100240000042429C
:100EC00080044242140000200070004070B504000D
:100ED00009D0606A002540B125616561A56294F87A
:100EE000510040B10CE0012070BD6068B0F5827F18
:100EF000F4D0E561F2E784F85050204600F040F865
:100F0000022084F851002068016821F0400101604E
:100F1000A088218900F4827001F404410843A1896A
:100F200001F400610843217C01F002010843217DA6
:100F300001F001010843218B01F400710843217F76
:100F400001F03801084394F8201001F080010843B3
:100F5000218D01F40051084321680860A069042133
:100F600001EA1040216848602068C16921F40061ED
:100F7000C1616565012084F85100002070BD00004A
:100F800030B585B000240094019402940394006865
:100F90001449884223D11448816941F48051816108
:100FA000816901F480510491816941F004018161FA
:100FB00080690E4D00F004000490A02000900220F3
:100FC00001900320039069462846FFF785FB4020E7
:100FD000CDE90004694628460294FFF77DFB05B081
:100FE00030BD000000300140001002400008014008
:100FF0002DE9F84F044690F85100984616460F46E2
:101000000025012801D0022598E060684FF0040B0C
:10101000B0F5827F01D1A068F8B194F850000128A2
:1010200026D04FF0010984F85090FFF753FC824618
:10103000002F7FD0002E7DD084F851B00020606555
:10104000A763A687E6872063A086E08620646064A5
:10105000A068B0F5004F0DD016E084F851B01346EB
:101060000A462046CDF8008000F024F9BDE8F88F4C
:101070000220FBE72068016821F040010160206840
:10108000016821F48041016020680168490603D4A9
:10109000016841F040010160E068D8B13BE02068A0
:1010A0008168C90709D0007BA16B0870A06B401C48
:1010B000A063E08F401EE0870CE0FFF70BFCA0EB85
:1010C0000A01414503D3B8F1FF3F03D006E0B8F170
:1010D000000F03D0E08F0028E1D11FE003252BE0B3
:1010E00020688168C90709D0C068A16B0880A06B1F
:1010F000801CA063E08F401EE0870CE0FFF7EAFB56
:10110000A0EB0A01414503D3B8F1FF3F03D0E5E767
:10111000B8F1000FE2D0E08F0028E1D152464146FD
:10112000204601F05CF808B120206065606D00E0A9
:1011300000E008B1012501E084F85190002084F816
:101140005000284692E72DE9F84F044690F85000E9
:101150000026984615468A4601280CD0012784F8B7
:101160005070FFF7B7FB814694F85100B346012851
:1011700004D002269AE00220BDE8F88FBAF1000FF1
:101180006FD0002D6DD0032084F85100C4F854B006
:10119000C4F830A0A586E586C4F838B0A4F83CB001
:1011A000A4F83EB0C4F844B0C4F840B0A068B0F5AC
:1011B000004F09D12068016821F0400101602068DA
:1011C000016841F48041016020680168490603D448
:1011D000016841F040010160E068B0F5006F6068AF
:1011E00003D058B3012D29D049E008B1012D1FD1FA
:1011F000206B21680088C86006E020688168890744
:1012000009D5216B0988C160206B801C2063E08EAA
:10121000401EE0860CE0FFF75DFBA0EB09014145B5
:1012200003D3B8F1FF3F03D006E0B8F1000F03D0BD
:10123000E08E0028E1D125E0032635E0206B21680F
:101240000078087306E02068816889070AD5216B59
:1012500009780173206B401C2063E08E401EE086FD
:101260000DE01FE0FFF736FBA0EB0901414503D37A
:10127000B8F1FF3F03D0DFE7B8F1000FDCD0E08E1C
:101280000028E0D14A464146204600F0D6FF08B18A
:1012900020206065A06818B92068C1688068009047
:1012A000606D08B1012601E084F8517084F850B0F7
:1012B000304661E72DE9FF4F81B0044690F85000B9
:1012C00000260E9F1D4693464FF0010901280FD0BE
:1012D0004FF0010A84F850A0FFF7FCFA804694F81A
:1012E0005100616801280DD0B1F5827F08D103E07B
:1012F000022005B0BDE8F08FA16809B9042801D02B
:101300000226C9E00298002865D0BBF1000FFBD08F
:10131000002DF9D094F85100042802D0052084F85B
:10132000510000206065C4F838B0E587A5870299B0
:101330002163E586A586206460642068016849060B
:1013400003D4016841F040010160E068B0F5006F2E
:10135000606803D0F0B3012D47D081E008B1012DC2
:101360003CD1206B21680088C860206B801C206302
:10137000E08E401EE08631E02068816889070FD545
:10138000E18E69B1B9F1010F0AD1216B0988C16001
:10139000206B801C2063E08E401EE0864FF0000929
:1013A00020688168C9070CD0E18F51B1C068A16B7A
:1013B0000880A06B801CA063E08F401EE0874FF088
:1013C0000109FFF787FAA0EB0800B84206D3781CA2
:1013D00004D001E009E05BE003265BE0E08E00283A
:1013E000CAD1E08F0028C7D140E0206B2168007887
:1013F0000873206B401C2063E08E401EE0862FE0C7
:101400002068816889070FD5E18E69B1B9F1010FB4
:101410000AD1216B09780173206B401C2063E08E98
:10142000401EE0864FF0000920688168C9070CD093
:10143000E18F51B1C068A16B0870A06B401CA06324
:10144000E08F401EE0874FF00109FFF743FAA0EB61
:101450000800B84202D3781C02D0BAE7002FB8D0F7
:10146000E08E0028CCD1E08F0028C9D14246394611
:10147000204600F0E2FE18B10126202060650BE056
:10148000A06818B92068C16880680090606D08B1D4
:10149000012601E084F851A0002084F85000304675
:1014A00027E710B5401EB0F1807F01D3012010BDA9
:1014B0004FF0E02460610F21601701F006F9002071
:1014C000A06107202061002010BD10B590F83C20DD
:1014D000012A22D0012280F83C20CA688C6822F4BC
:1014E000407222434C6822F4806222430C6822F44A
:1014F000006222430C6922F4805222434C6922F498
:1015000000522243C969002322F480420A43016841
:101510004A6480F83C30002010BD022010BD00005D
:1015200070B590F83C20012A26D0012480F83C4078
:10153000022280F83D2003685A689D6822F07006F8
:101540000A6832435A600D4B02689A4208D0B2F1E1
:10155000804F05D00A4B9A4202D00A4B9A4204D1DE
:10156000496825F080031943916080F83D400021CF
:1015700080F83C10084670BD022070BD002C014070
:10158000000400400008004010B5040003D094F8A7
:101590003D0010B107E0012010BD002084F83C00A0
:1015A000204600F01FF8022084F83D00211D20682D
:1015B00000F0E4FE012084F8460084F83E0084F840
:1015C0003F0084F8400084F8410084F8420084F829
:1015D000430084F8440084F8450084F83D0000206E
:1015E00010BD000008B500680649884208D10648C9
:1015F000816941F400618161806900F400600090BC
:1016000008BD0000002C01400010024070B50446E7
:1016100090F83C000025012817D0012684F83C6092
:10162000022084F83D002068826822F0770222F4CC
:101630007F4282600868502838D00DDC20284FD0C7
:1016400005DC90B3102811D14AE0022070BD30288B
:1016500046D040280AD13BE060282FD070280DD01A
:10166000B0F5805F03D0B0F5005F12D0012584F89B
:101670003D60002084F83C00284670BDCB68D1E96D
:101680000121206800F0B0FE2068816841F07701F8
:1016900009E0CB68D1E90121206800F0A5FE2068AF
:1016A000816841F480418160E1E719E0CA684968D6
:1016B000206800F04DFF5021206806E0CA684968A4
:1016C000206800F056FF6021206800F097FECEE70A
:1016D000CA684968206800F03BFF40212068F4E7B1
:1016E000226801461046F0E700B585B00021009160
:1016F00001910291039100680B49884212D10B4875
:10170000816941F0040181618069694600F004004B
:1017100004904FF440700090022001900390044820
:10172000FEF7DAFF05B000BD002C014000100240BA
:101730000008014070B5044690F83C0000250128DF
:101740000FD0012084F83C006AB1042A0FD0082A87
:1017500011D00C2A13D00125002084F83C00284623
:1017600070BD022070BD206800F050FEF4E72068D4
:1017700000F074FEF0E7206800F09CFEECE72068C3
:1017800000F0C4FEE8E710B5040003D094F83D0073
:1017900010B107E0012010BD002084F83C00204675
:1017A00000F01EF8022084F83D00211D206800F0A2
:1017B000E5FD012084F8460084F83E0084F83F00EF
:1017C00084F8400084F8410084F8420084F8430023
:1017D00084F8440084F8450084F83D00002010BDE2
:1017E000704770B5044690F83C0000260D4601286D
:1017F0000FD0012084F83C006AB1042A1DD0082AC9
:101800002FD00C2A3FD00126002084F83C0030461F
:1018100070BD022070BD206800F0F8FD206881696D
:1018200041F0080181612068816921F00401816132
:10183000206881692A69114311E0206800F00EFEDA
:101840002068816941F4006181612068816921F427
:1018500080618161206881692A6941EA0221816190
:10186000D2E7206800F026FE2068C16941F0080137
:10187000C1612068C16921F00401C1612068C169AA
:101880002A69114311E0206800F040FE2068C16918
:1018900041F40061C1612068C16921F48061C161C6
:1018A0002068C1692A6941EA0221C161ACE710B52B
:1018B000040003D094F83D0010B107E0012010BDF2
:1018C000002084F83C00204600F01EF8022084F836
:1018D0003D00211D206800F051FD012084F84600E4
:1018E00084F83E0084F83F0084F8400084F841000A
:1018F00084F8420084F8430084F8440084F84500EA
:1019000084F83D00002010BD704770B5040004D07D
:1019100094F84100002510B106E0012070BD84F864
:101920004050204600F024F8242084F8410020682C
:10193000C16821F40051C160204600F02DFE2068EE
:10194000016921F4904101612068416921F02A0177
:1019500041612068C16841F40051C1606564202084
:1019600084F8410084F842006563002070BD0000E7
:1019700030B585B00024009401940294039400686B
:10198000174988422AD11748816941F48041816111
:10199000816901F480410491816941F0080181610C
:1019A0008069114D00F00800049040200090022052
:1019B00001900320039069462846FEF78DFE8020A3
:1019C000CDE90004694628460294FEF785FE0748E3
:1019D000416841F0E06141F00401416005B030BD73
:1019E0000038014000100240000C0140000001409E
:1019F0002DE9F843044690F841001F4616460D466F
:101A0000202802D00220BDE8F8837DB176B1002005
:101A10006064212084F84100FEF75CFFA6848046C4
:101A2000E684A068B0F5805F02D003E00120EAE719
:101A3000206910B12E4600250EE000260CE0802122
:101A4000204600F005FEA0B9AEB116F8010B2168E2
:101A50004860E08C401EE084E08C43464FF000027A
:101A600000970028EBD14FF04001204600F0F0FD38
:101A700030B10320C7E735F8020BC0F30800E6E7F2
:101A8000202084F841000020BDE7FEE72DE9F04169
:101A900086B0002424480094019402940394816940
:101AA00041F010018161816901F0100104918169A7
:101AB00041F020018161816901F020010491816977
:101AC00041F004018161816901F00401049181699F
:101AD00041F0080181618069144F00F008004FF463
:101AE00000550490002229463846FEF7EDFEDFF847
:101AF0004080002218214046FEF7E6FE00950226AF
:101B000001250396CDE9015469463846FEF7E4FD08
:101B10001820CDE90005CDE9024669464046FEF7AA
:101B2000DBFD06B0BDE8F08100100240001001406E
:101B3000000801400F4810B50D4901604FF4827153
:101B4000416000218160C1604FF400720161C0E911
:101B500005121822C0E90721416281620A21C1628F
:101B6000FFF7B4F9002801D072B6FEE710BD0000FF
:101B7000003001403000002010B596B000240F94D2
:101B800010941194129413941C2168461494FEF737
:101B9000B4FC202107A8FEF7B0FC2F482D49C0E96E
:101BA00000144FF6FF71C0E9024104614461846191
:101BB000FFF7EAFC08B172B6FEE74FF480500F90D1
:101BC0000FA92548FFF722FD08B172B6FEE72248AB
:101BD000FFF76DFE08B172B6FEE71F48FFF7D3FDB1
:101BE00008B172B6FEE7139413A91B481494FFF7CB
:101BF00097FC08B172B6FEE76020CDE900040294BC
:101C00000394049405940022694613480694FFF750
:101C1000E8FD08B172B6FEE7042269460E4800945A
:101C2000FFF788FD08B172B6FEE70794089409949F
:101C30004FF400500A94CDE90B4007A906480E94D2
:101C4000FFF743FC08B172B6FEE70348FFF74CFD0F
:101C500016B010BD002C014088000020FEE7FEE712
:101C600008B5002000F00CF950208DF8000073201A
:101C70008DF801006423022269460348FFF763FAE6
:101C8000012000F0FDF808BD4C0100200449054A80
:101C90000968B1FBF2F14143491EFDD270470000D3
:101CA00014000020C0C62D000020AFF3008070B5E6
:101CB000054600F00BF90446C0F380166EB115B16D
:101CC000C4F3420028704021072000F051FAA0061A
:101CD00003D52021072000F04BFA304670BD0000EC
:101CE0000FB47CB514460D460646582209A95D4836
:101CF000FEF7D1FB5C4B0120DE60DD801C8100F033
:101D0000BFF8002000F0B2F80520FEF7D3FC082150
:101D1000002000F02DFA3F21012000F029FA0321D4
:101D2000022000F025FA0321084600F021FA0321E1
:101D3000042000F01DFA0221052000F019FA0F21FD
:101D4000062000F015FA0E21072000F011FA0021FC
:101D5000082000F00DFA0021092000F009FAE7241C
:101D60008DF803408DF802408DF801408DF8044055
:101D70008DF80040052269460A2000F011FAC220C1
:101D80008DF803008DF802008DF801008DF8040035
:101D90008DF80000052269460B2000F001FAC321EE
:101DA0000C2000F0E5F9C4210D2000F0E1F9C52177
:101DB0000E2000F0DDF9C6210F2000F0D9F98DF8D2
:101DC00003408DF802408DF801408DF804408DF8F5
:101DD000004005226946102000F0E2F900211120A0
:101DE00000F0C6F90021122000F0C2F900211320F2
:101DF00000F0BEF90021142000F0BAF900211520EE
:101E000000F0B6F90021162000F0B2F9FFF728FF24
:101E100000211C2000F0ACF900211D2000F0A8F9E1
:101E200000F024FD0F21084600F078F9032000F0AF
:101E30004FF9012000F01EF9022000F000F900F037
:101E400029F8202000F062F900F0EEF84C2000F0B4
:101E50000AF900F037F800F031F800F067F87CBCC0
:101E60005DF814FB4C01002018000020020003481C
:101E70000189C06800D00122FEF726BD18000020AD
:101E800002000348C188C06800D00122FEF71CBDD3
:101E90001800002010B51D2000F088F820F0040183
:101EA0001D2000F065F900211C2000F061F90249B5
:101EB0000020C87010BD000018000020FF21E220A3
:101EC00000F056B9FF21E12000F052B9072000F0E0
:101ED0006DB800007FB504001248134D06D0062CE3
:101EE0001ED8022C07D2005D052206E0DDE90212B1
:101EF000C5E90412F7E7005D012202A900F050F9DC
:101F00000848A978801F005D00F032F9022000F037
:101F10004DF80121A1400843C1B2022000F028F988
:101F20007FBD00006C3000081800002010B50020B4
:101F300000F03CF820F00201BDE81040002000F065
:101F400017B910B500F010F8172000F02FF800F0C6
:101F50000104FFF7B3FF602000F028F80CB1012066
:101F600010BD002010BD000038B505460D4884782E
:101F70008C4200D90C460020FFF782FF61208DF8CB
:101F800000006423012269460748FFF7DCF8642358
:101F9000224629460448FFF72BF80120FFF770FF7F
:101FA00038BD0000180000204C01002038B5044660
:101FB0000020FFF765FF04F01F008DF80000642388
:101FC000012269460848FFF7BEF86423012206484B
:101FD0000DF10101FFF70CF89DF801400120FFF71A
:101FE0004FFF204638BD00004C010020F8B50446E4
:101FF00015460E460020FFF743FF04F01F008DF842
:1020000000006423012269460648FFF79CF8642318
:102010002A4631460348FEF7EBFF0120FFF730FF69
:10202000F8BD00004C0100207021072000F0A0B88E
:1020300008B13F2100E00021012000F099B810B55F
:1020400004460020FFF7B2FF20F00C011CB1012C68
:1020500006D041F00C01BDE81040002000F088B827
:1020600041F00801F7E77F2800D37F2001460520D3
:1020700000F07EB82DE9F04107464FF00008062039
:10208000FFF794FF114D002620F028046E71022FF7
:102090000ED0012F10D06E712146062000F068F896
:1020A0000620FFF783FFA0420BD14FF0010809E0A3
:1020B0006E7144F02004EFE70120687144F00804D9
:1020C000EAE76E714046BDE8F0810000180000208C
:1020D00010B504460620FFF769FF20F00601032C27
:1020E0000DD0022C05D0012C06D054B1042C06D002
:1020F00007E041F0040104E041F0020101E041F099
:102100000601BDE81040062000F032B8202800D3B8
:1021100020200149887070471800002000F00F004F
:1021200060F31F11042000F023B8000010B5002058
:10213000FFF73CFF40F00301002000F019F80B49C5
:10214000D1E90401084305D00849052210310A20CD
:1021500000F026F8FFF7B6FEFFF7B0FE0120FFF70C
:1021600085FEBDE810409620FFF790BD18000020C6
:1021700038B505460C460020FFF782FE45F02000EA
:102180008DF800008DF8014064230222694603485F
:10219000FEF7D9FF0120FFF773FE38BD4C01002088
:1021A000F8B5044615460E460020FFF769FE44F0D8
:1021B00020008DF800006423012269460648FEF7DE
:1021C000C2FF64232A4631460348FEF7BCFF0120C4
:1021D000FFF756FEF8BD00004C0100207047F8B52F
:1021E000044640684FF48273984217D1A0684FF4B8
:1021F0008065B0F5004F01D0A8420FD12068066875
:1022000026F0400606606068984207D1A068A842A0
:1022100004D100920B460022012103E000920B46FC
:1022200000228021204600F019F8002804D0606DBB
:1022300040F0200060650320F8BD38B50B460092E1
:1022400004460022802100F009F8002804D0606DC7
:1022500040F020006065032038BD00002DE9F84300
:102260001E46914688460446089DFEF733FB401BF8
:10227000351AFEF72FFB074625480068C0F3CB3020
:10228000684338E0701C37D0FEF724FBC01BA8421F
:1022900003D215B1009860B32CE02068416821F0AA
:1022A000E00141606068B0F5827F0BD1A068B0F5B5
:1022B000004F02D0B0F5806F04D12068016821F092
:1022C00040010160A06AB0F5005F09D12068016893
:1022D00021F4005101602068016841F4005101605F
:1022E000012084F85100002084F850000320BDE84C
:1022F000F8830025401E00902068816838EA0100BC
:1023000004D000214945BDD10020F0E70121F9E7C3
:10231000140000207047FEF7E3BA30B58FB02821D3
:102320006846FEF7EAF814210AA8FEF7E6F801214C
:102330000804CDE900100024029402250491CDE99F
:1023400007504FF4E01009906846FEF72FFC08B1E3
:1023500072B6FEE70F20CDE90A054FF48060CDE9A3
:102360000C4002210AA80E94FEF744FB002801D07D
:1023700072B6FEE70FB030BD70470000F0B50268DE
:10238000164B174C174D4FF08047984205D0B84276
:1023900003D0A04201D0A84203D122F070064A68BF
:1023A0003243984205D0B84203D0A04201D0A8429F
:1023B00003D122F44074CA6822434C6922F080029F
:1023C000224302608A68C2620A688262984201D12E
:1023D0000969016301214161F0BD0000002C014049
:1023E000000400400008004010B5846842EA03225F
:1023F00024F47F440A432243826010BD826822F0A5
:1024000070020A4342F007018160704730B5036AE9
:10241000026A22F0010202624268846924F07305B4
:102420000C682C4323F002058B682B430A4DA8420D
:102430000BD123F00805CB6822F440722B434D6981
:1024400023F0040315438A692A4342608461496882
:102450004163036230BD0000002C014030B5026AC8
:10246000036A23F010030362436884690D6824F44F
:10247000E64444EA05248D6822F0200242EA05126F
:102480000B4DA8420ED1CD6822F0800242EA05121F
:102490004D6923F4406343EA85038D6922F04002CD
:1024A00043EA85034360846149688163026230BD09
:1024B000002C014030B5036A026A22F48072026285
:1024C0004268C46923F4007324F073050C682C433C
:1024D0008D6843EA05230C4DA8420ED1CD6823F444
:1024E000006343EA05234D6922F4405242EA051293
:1024F0008D6923F4806342EA05124260C461496831
:10250000C163036230BD0000002C014030B5046A95
:10251000026A22F4805202624268C3690D6823F4A1
:10252000E64343EA05238D6824F4005444EA053465
:10253000064DA84204D14D6922F4804242EA851238
:102540004260C36149680164046230BD002C0140EF
:1025500010B5036A046A24F001040462846924F05B
:10256000F00444EA021423F00A020A43846102627E
:1025700010BD10B5036A046A24F010040462846973
:1025800023F0A00324F4704444EA023243EA011128
:102590008261016210BD000070B5044600680169E7
:1025A000E26821F44051114301612169A0680843A8
:1025B000616908432168CA6841F20C639A43024387
:1025C000CA6020684169A26921F4407111434161E8
:1025D0001E492068884202D1FEF7B2FA01E0FEF7F8
:1025E0009FFA00EBC00101EB0012606864218000DB
:1025F000B2FBF0F3B3FBF1F36FF018067343B2FBD9
:10260000F0F5B2FBF0F605EB8305322303EB05157D
:10261000B5FBF1F5B6FBF1F605F0F00505EB061597
:10262000B2FBF0F6B2FBF0F0B0FBF1F06FF0180285
:10263000504306EB800003EB0010B0FBF1F0216883
:1026400000F00F002844886070BD00000038014091
:102650002DE9F041984617460E460446069D27E0B0
:10266000681C25D02DB1FEF735F9A0EB0800A84273
:102670001ED920680C3050E8001F21F4D07140E8CA
:102680000012002AF5D12068143050E8001F21F014
:10269000010140E80012002AF5D1202084F8410011
:1026A00084F84200002084F840000320BDE8F08157
:1026B0002068006836EA000004D00020B842CFD07D
:1026C0000020F3E70120F9E7FEE70907090E0028DB
:1026D00004DB00F1E02080F80014704700F00F00E8
:1026E00000F1E02080F8141D704730380A2801D22C
:1026F0000120704700207047ACB0FEF7F9F8FFF7F3
:102700000CFEFFF7C3F9FFF715FAFFF735FA4D4C4A
:102710004B480C2120604FF4E13060600020A06045
:10272000E060C4E90401A061E0612046FFF7EDF834
:1027300008B172B6FEE743493622A03915A8FDF765
:10274000AAFE404DA03DE88EADF88A00A86B23900C
:10275000A88FADF89000E88FADF89200112205F136
:10276000400125A8FDF797FE95F851008DF8A500CA
:10277000686D2A90542216A96846FDF78CFE08223F
:1027800010213148159BFFF7ABFA26222D490EA8E0
:10279000FDF781FEE08CADF85E0005F18000816CF4
:1027A0001891B0F84C00ADF86400E08DADF866000B
:1027B000206B1A90606B1B90092205F1D8011CA8B0
:1027C000FDF769FE94F841008DF8790094F8420015
:1027D0008DF87A00606C1F90382212A96846FDF7C8
:1027E0005AFE0DF1380C9CE80F0000F033F800F0B1
:1027F0003DF80120FFF71CFC3420FFF734FC2020BB
:10280000FFF784FC1148D0E900230120FFF762FBA9
:10281000FFF78CFC0E4D4FF4005400BFFFF744FA55
:102820000028FBD0074820214830FFF78AFB2146CB
:102830002846FEF741F8C820FDF73CFFEEE7000010
:1028400000380140D00000200008014000000020B6
:10285000001001400FB4482210B502A90248FDF74C
:102860001AFE10BC5DF814FBA401002010B5A0B046
:10287000F4A104A8FDF7B0FC04A8FDF7EDFD82B2B9
:102880000A2304A9FC48FFF7B3F80020FFF78EFBEA
:1028900001077AD5400701D5F8A100E0FEA104A800
:1028A000FDF79AFC04A8FDF7D7FD82B20A2304A91C
:1028B000F148FFF79DF80120FFF778FBC0F34014C3
:1028C000C0F30013C0F3C002C0F380018DE81E0006
:1028D00000F00102C0F34003F64904A8FDF77CFCB8
:1028E00004A8FDF7B9FD82B20A2304A9E248FFF764
:1028F0007FF80220FFF75AFBC0F34014C0F3001327
:10290000C0F3C002C0F380018DE81E0000F0010298
:10291000C0F34003E84904A8FDF75EFC04A8FDF7F6
:102920009BFD82B20A2304A9D348FFF761F8032074
:10293000FFF73CFB00F00302E0A104A8921CFDF7A6
:102940004BFC04A8FDF788FD82B20A2304A9CA48FB
:10295000FFF74EF80520FFF729FB00F07F02DEA10C
:1029600004A8FDF739FC04A8FDF776FD82B20A231E
:1029700004A9C148FFF73CF80620FFF717FB0446FF
:10298000000704D5D9A103E0FFE7DEA187E7E2A1B4
:1029900004A8FDF721FC04A8FDF75EFD82B20A231E
:1029A00004A9B548FFF724F8032010EA540006D024
:1029B000012806D0022806D0032806D009E0DCA1B1
:1029C00004E0E0A102E0E4A100E0E8A104A8FDF732
:1029D00003FC04A8FDF740FD82B20A2304A9A6481F
:1029E000FFF706F805221DA90A20FFF7FFFA9DF858
:1029F00076009DF874209DF875108DE807009DF80D
:102A000077309DF87820DEA104A8FDF7E5FB04A847
:102A1000FDF722FD82B20A2304A99748FEF7E8FFDA
:102A200005221DA90B20FFF7E1FA9DF876009DF81D
:102A300074209DF875108DE807009DF877309DF89B
:102A40007820DBA104A8FDF7C7FB04A8FDF704FD6F
:102A500082B20A2304A98848FEF7CAFF01221DA9F1
:102A60000C20FFF7C3FA9DF87420DDA104A8FDF740
:102A7000B3FB04A8FDF7F0FC82B20A2304A97E4848
:102A8000FEF7B6FF01221DA90D20FFF7AFFA9DF852
:102A90007420DDA104A8FDF79FFB04A8FDF7DCFC72
:102AA00082B20A2304A97448FEF7A2FF01221DA9DD
:102AB0000E20FFF79BFA9DF87420DDA104A8FDF716
:102AC0008BFB04A8FDF7C8FC82B20A2304A96A485C
:102AD000FEF78EFF01221DA90F20FFF787FA9DF850
:102AE0007420DDA104A8FDF777FB04A8FDF7B4FC72
:102AF00082B20A2304A96048FEF77AFF05221DA9C5
:102B00001020FFF773FA9DF876009DF874209DF869
:102B100075108DE807009DF877309DF87820D8A1D2
:102B200004A8FDF759FB04A8FDF796FC82B20A231E
:102B300004A95148FEF75CFF1120FFF737FA00F0B7
:102B40003F02DAA104A8FDF747FB04A8FDF784FCC7
:102B500082B20A2304A94848FEF74AFF1220FFF771
:102B600025FA00F03F02D8A104A8FDF735FB04A820
:102B7000FDF772FC82B20A2304A93F48FEF738FF32
:102B80001320FFF713FA00F03F02D6A104A8FDF7C7
:102B900023FB04A8FDF760FC82B20A2304A936488F
:102BA000FEF726FF1420FFF701FA00F03F02D4A140
:102BB00004A8FDF711FB04A8FDF74EFC82B20A231E
:102BC00004A92D48FEF714FF1520FFF7EFF900F0D8
:102BD0003F02D2A104A8FDF7FFFA04A8FDF73CFCD0
:102BE00082B20A2304A92448FEF702FF1620FFF749
:102BF000DDF900F03F02D0A104A8FDF7EDFA04A82A
:102C0000FDF72AFC82B20A2304A91B48FEF7F0FE56
:102C10001C20FFF7CBF9C0F34014C0F30013C0F33E
:102C2000C002C0F380018DE81E0000F00102C0F375
:102C30004003C84904A8FDF7CFFA04A8FDF70CFC2F
:102C400082B289E10D0A2A2A2A2A2A2A2A2A2A2A2B
:102C50002A2A2A2A2A2A2A2A2A2A2A2A2A2A2A2AD4
:102C60002A2A2A2A2A2A2A2A2A2A2A2A2A2A2A2AC4
:102C70002A2A2A2A0D0A0000A40100204352433ABE
:102C80000D0A0909456E61626C65642C2032204290
:102C900079746573200D0A004352433A0D0A0909FD
:102CA000456E61626C65642C203120427974652028
:102CB0000D0A0000AC300008F030000853455455B0
:102CC000505F41573A0D0A090925642062797465FD
:102CD00073200D0A0000000052465F43483A0D0A77
:102CE00009092564204348200D0A000044617461ED
:102CF00020526174653A0D0A0909324D62707320E1
:102D00000D0A00004352433A0D0A090944697361F0
:102D1000626C6564200D0A00446174612052617424
:102D2000653A0D0A0909314D627073200D0A0000E1
:102D300052465F5057523A0D0A09092D3138644204
:102D4000200D0A0052465F5057523A0D0A09092DCC
:102D500031326442200D0A0052465F5057523A0DFC
:102D60000A09092D366442200D0A000052465F50C0
:102D700057523A0D0A0909306442200D0A0000003A
:102D800052585F50697065302041646472733A0D27
:102D90000A0909253032582C253032582C2530327A
:102DA000582C253032582C2530325820200D0A005E
:102DB00052585F50697065312041646472733A0DF6
:102DC0000A0909253032582C253032582C2530324A
:102DD000582C253032582C2530325820200D0A002E
:102DE00052585F50697065322041646472733A0DC5
:102DF0000A090978782C78782C78782C78782C2522
:102E000030325820200D0A0052585F5069706533E7
:102E10002041646472733A0D0A090978782C787835
:102E20002C78782C78782C2530325820200D0A0008
:102E300052585F50697065342041646472733A0D72
:102E40000A090978782C78782C78782C78782C25D1
:102E500030325820200D0A0052585F506970653595
:102E60002041646472733A0D0A090978782C7878E5
:102E70002C78782C78782C2530325820200D0A00B8
:102E800054582041646472733A0D0A09092530329E
:102E9000582C253032582C253032582C25303258B9
:102EA0002C2530325820200D0A00000052585F5067
:102EB000575F50303A0D0A0909256420627974651C
:102EC00073200D0A0000000052585F50575F5031C8
:102ED0003A0D0A09092564206279746573200D0A88
:102EE0000000000052585F50575F50323A0D0A09F7
:102EF000092564206279746573200D0A00000000C2
:102F000052585F50575F50333A0D0A090925642023
:102F10006279746573200D0A0000000052585F50FA
:102F2000575F50343A0D0A090925642062797465A7
:102F300073200D0A0000000052585F50575F503553
:102F40003A0D0A09092564206279746573200D0A17
:102F5000000000003C3100080A2304A91C48FEF7C9
:102F600047FD1D20FFF722F80446400701D519A1AF
:102F700000E01EA104A8FDF72FF904A8FDF76CFAE4
:102F800082B20A2304A91248FEF732FDA00701D538
:102F90001CA100E022A104A8FDF71EF904A8FDF77A
:102FA0005BFA82B20A2304A90948FEF721FDAFF2B9
:102FB0006C3104A8FDF710F904A8FDF74DFA82B2B0
:102FC0000A2304A90248FEF713FD20B010BD00003B
:102FD000A4010020454E5F44504C3A0D0A090945B2
:102FE0006E61626C6564200D0A000000454E5F440E
:102FF000504C3A0D0A090944697361626C6564209A
:103000000D0A0000454E5F41434B5F5041593A0D58
:103010000A0909456E61626C6564200D0A000000B2
:10302000454E5F41434B5F5041593A0D0A090944EF
:10303000697361626C6564200D0A0000010202037D
:103040000405060708090A0B0C0D0E0F10100000EE
:103050000000000000000102030406070809000048
:103060000000010203041112131415160A0B0C0DB3
:103070000E0F103031323334353637383941424350
:1030800044454640305800303132333435363738D5
:1030900039616263646566403078000400000800AE
:1030A000000000000000020001000010454E4141F8
:1030B0003A0D0A090950303A0925640D0A090950E8
:1030C000313A0925640D0A090950323A0925640D7F
:1030D0000A090950333A0925640D0A090950343A9E
:1030E0000925640D0A090950353A0925640D0A00BD
:1030F000454E5F5258414444523A0D0A0909503036
:103100003A0925640D0A090950313A0925640D0A66
:10311000090950323A0925640D0A090950333A0960
:1031200025640D0A090950343A0925640D0A090974
:1031300050353A0925640D0A0000000044594E50EC
:10314000445F706970653A0D0A090950303A0925E3
:10315000640D0A090950313A0925640D0A0909501C
:10316000323A0925640D0A090950333A0925640DDC
:103170000A090950343A0925640D0A090950353AFB
:103180000925640D0A000000A83100080000002095
:103190003000000028010008D8310008300000206D
:1031A0002008000044010008AA4433221100000056
:1031B0000100000010000000000000000024F400E6
:1031C00000000000000000000000000000000000FF
:0831D0000000000000000000F7
:04000005080000ED02
:00000001FF
