:020000040800F2
:1000000050160020D90100084B2A0008EB270008F1
:10001000492A0008EF060008A3500008000000006D
:100020000000000000000000000000000136000891
:10003000A507000800000000C934000803360008C6
:10004000F3010008F3010008F3010008F3010008C0
:10005000F3010008F3010008F3010008F3010008B0
:10006000F3010008F3010008F3010008F3010008A0
:10007000F3010008F3010008F3010008F301000890
:10008000F3010008F3010008F3010008F301000880
:100090002D500008F3010008F3010008F3010008E7
:1000A000F3010008F3010008F3010008F301000860
:1000B000F3010008F3010008F3010008F301000850
:1000C000F3010008F3010008F3010008F301000840
:1000D000F3010008F3010008F3010008F301000830
:1000E000F3010008F3010008F301000800F002F832
:1000F00000F062F80AA090E8000C82448344AAF160
:100100000107DA4501D100F057F8AFF2090EBAE85D
:100110000F0013F0010F18BFFB1A43F0010318473B
:10012000B45B0000D45B00000A444FF0000C10F8F0
:10013000013B13F0070408BF10F8014B1D1108BF65
:1001400010F8015B641E05D010F8016B641E01F805
:10015000016BF9D113F0080F1EBF10F8014BAD1C55
:100160000C1B09D16D1E58BF01F801CBFAD505E073
:1001700014F8016B01F8016B6D1EF9D59142D6D3CD
:10018000704700000023002400250026103A28BFF5
:1001900078C1FBD8520728BF30C148BF0B607047F9
:1001A000642900F07580782900F0AE800020704747
:1001B0001FB51FBD10B510BD00F05FFA1146FFF767
:1001C000F7FF04F09BFF00F07DFA03B4FFF7F2FFA6
:1001D00003BC00F085FA0000094880470948004741
:1001E000FEE7FEE7FEE7FEE7FEE7FEE7FEE7FEE7E7
:1001F000FEE7FEE704480549054A064B7047000044
:100200007D360008ED000008501000205016002038
:1002100050120020501200200FB41CB5074B06AA44
:100220007B4469460090059800F00FFA002069466B
:1002300000F01EFA1CBC5DF814FB00004D04000029
:1002400070B5044685690068C10601D5302600E016
:100250002026C00707D070BDD4E901213046904761
:10026000206A401C20626D1EF6D570BD70B5044634
:1002700085690078C00707D170BDD4E9012120202D
:100280009047206A401C20626D1EF6D570BD0000AC
:100290002DE9F0410646002410687529314616A55F
:1002A00010D0AFF30080002802DA404213A507E027
:1002B00031688A0701D512A502E0490704D511A5C6
:1002C000012401E0AFF3008000210A2206F1240797
:1002D00009E0B0FBF2FCB0FBF2F302FB1C00303093
:1002E00078541846491C0028F3D123462A46304644
:1002F000BDE8F04100F04BB9000000002D00000007
:100300002B0000002000000070B504460D46214679
:100310001068AFF300802188090502D50F4A7A449E
:1003200002E00E4A7A440E32002104F1240305E073
:1003300000F00F060009965D5E54491C0028F7D1B5
:1003400020780023000704D5702D02D009B10223C4
:1003500011322046BDE8704000F019B99D580000E8
:100360002DE9F05F894604464FF0000ADFF824B11A
:10037000FB44C0F820A02046E168884700287DD0D3
:10038000252806D0D4E901219047206A401C20622C
:10039000F1E700255F462046E168884720280646A9
:1003A00007DB312E05D2B81910F8200C08B105432F
:1003B000F1E7A80701D525F00405C4F81CA0002723
:1003C000C4F818A02A2E09D0304604F07BFE38B3BA
:1003D00004EB8708303EC8F8186019E059F8041B90
:1003E000204604EB87029161E1688847012F0646A9
:1003F00018D1E069002820DA25F020051DE0D8F8A2
:10040000180000EB800006EB40003038C8F81800F8
:100410002046E1688847064604F054FE0028EED1E5
:10042000012F0AD02E2E08D12046E16888477F1C74
:100430000646022F45F02005C4DBA069002803DA38
:10044000404245F00105A061E80701D025F0100504
:10045000A6B1A6F14100192802D8203645F400655E
:100460004A463146204625604D46FFF799FE60B169
:10047000012807D0ED1D25F0070000E007E000F19E
:10048000080978E705F1040975E730467AE7206A3C
:10049000BDE8F09F7358000010B5431C02E010F84F
:1004A000011B71B18107FAD14FF0013202C88C1AD9
:1004B0008C4314EAC211F9D0C01A0A0603D0C01E38
:1004C00010BDC01A10BD0A0401D0801E10BD090263
:1004D000FCD0401E10BD10B5203AC0F00B80B1E832
:1004E0001850203AA0E81850B1E81850A0E8185069
:1004F000BFF4F5AF5FEA027C24BFB1E81850A0E872
:10050000185044BF18C918C0BDE810405FEA827C8B
:1005100024BF51F8043B40F8043B08BF7047D207A2
:1005200028BF31F8023B48BF11F8012B28BF20F843
:10053000023B48BF00F8012B70474FF0000200B5A6
:10054000134694469646203922BFA0E80C50A0E8F6
:100550000C50B1F12001BFF4F7AF090728BFA0E8A4
:100560000C5048BF0CC05DF804EB890028BF40F870
:10057000042B08BF704748BF20F8022B11F0804FB2
:1005800018BF00F8012B70477047704770472DE97E
:10059000F0470D4699469246044600F1240801684A
:1005A000880604D5E06921F01001216000E00120F7
:1005B000A84201DD471B00E00027A1697A1902EB80
:1005C0000900081AA0612078C00602D42046FFF76F
:1005D00037FE002608E0D4E901211AF8060090470A
:1005E000206A401C761C20624E45F4DB2078C00651
:1005F0000AD52046FFF724FE06E0D4E90121302089
:100600009047206A401C2062381EA7F10107F4DCE5
:1006100007E0D4E9012118F805009047206A401C42
:100620002062281EA5F10105F3DC2046FFF71EFE1F
:100630002078000602D50220BDE8F0870120FBE704
:1006400001694A1C02610878704700B58FB0CDE996
:1006500001310021059105497944CDE90310114686
:100660006846FFF77DFE0FB000BD0000E5FFFFFF0D
:100670000A6802F8010B0A607047754600F02CF812
:10068000AE4605006946534620F00700854618B07F
:1006900020B5FFF7AFFDBDE820404FF000064FF05A
:1006A00000074FF000084FF0000B21F00701AC46A7
:1006B000ACE8C009ACE8C009ACE8C009ACE8C009C6
:1006C0008D46704710B50446AFF300802046BDE864
:1006D0001040FFF77ABD000000487047EC0F002083
:1006E00001491820ABBEFEE7260002007047FEE776
:1006F000002070470020704710B5002205490648C9
:1007000003F056FA03490448803903F04BFA0020FD
:1007100010BD00005C0A00201805002070B5134CC5
:1007200005460868606000F049F9A168401AB0F514
:100730007A7F0DD90020207002460D49606805E0DF
:100740002378AE5CCE545B1C2370521C8242F7D3DC
:100750002946084803F026FA064803F007FA012064
:10076000607000F02BF9A060002070BDA000002098
:10077000D403002018050020094A10B5D2F8B82289
:10078000D2F814220AB1012010BD0A4601460448DD
:1007900003F00EFABDE81040014803F067BA00000C
:1007A00018050020704772B6FEE7000070B50446D9
:1007B00000F004F90546601C02D0044800780444A7
:1007C00000F0FCF8401BA042FAD370BD28000020C6
:1007D0002DE9F84FDFF8B8910024A9F1040B234666
:1007E0000F2709F1040AABF1040EC9E00125A54069
:1007F0002A40AA427DD1674ED1F804C0ACEB06086E
:10080000B44532D014DCBCF1030F3AD009DCBCF1A2
:10081000000F2AD0BCF1010F1CD0BCF1020F31D166
:100820001DE0BCF1110F17D0BCF1120F2AD119E055
:10083000B8F5881F19D006DCB8F5803F15D0B8F59B
:10084000801F1FD111E0B8F5001F0ED0B8F5041FAE
:1008500018D10AE0CB6815E0CB681B1D12E0CB680D
:1008600008330FE0CB680C330CE08B682BB1012B05
:100870004FF0080303D0456104E0042302E0056162
:1008800000E00023FF2A01D8064601E000F104063B
:100890004FEA840501D9A5F12005D6F8008007FAB2
:1008A00005FC28EA0C0803FA05F548EA0508C6F82D
:1008B00000804D68ED0062D5374DAE6946F0010607
:1008C000AE61AD6924F0030605F001050095334DD6
:1008D00006EB050CDCF80850A607360F07FA06F8F9
:1008E00025EA0805DFF8B880404503D14FF000083D
:1008F00017E044E0DFF8AC80404502D14FF001083A
:100900000FE0DFF8A480404502D14FF0020808E074
:10091000DFF89880404502D14FF0030801E04FF026
:10092000040808FA06F848EA0508CCF808804D687B
:10093000D9F80060ED024D4601D5164300E096431C
:100940002E604D68DAF80060AD02554601D51643B9
:1009500000E096432E604D68DBF80060AD035D4615
:1009600001D5164300E096432E604D68DEF8006026
:10097000ED03754601D5164300E096432E60641CD6
:100980000D682A46E5407FF431AFBDE8F88F0000DE
:100990000804014000001110001002400000014056
:1009A00000080140000C014000100140001401400B
:1009B0000AB1016170470904FBE700000148806843
:1009C000704700002800002070B5040025D094F87E
:1009D0003D00002520B984F83C50204600F0B8F8CE
:1009E000242084F83D002068016821F001010160A5
:1009F0002068016841F4004101602068016821F429
:100A00000041016000F03CFF4D4A6168914201D80D
:100A10004C4900E04C49884201D2012070BD4B494D
:100A20002368B0FBF1F15E6826F03F060E435E607E
:100A30006368934206D94FF4967359434FF47A731F
:100A4000B1FBF3F12368491C1E6A26F03F063143CF
:100A500019626168914210D84900401EB0FBF1F262
:100A6000521CC2F30B02042A01D2042022E0B0FB84
:100A7000F1F0401CC0F30B001CE0A268F2B301EBE4
:100A8000C10303EB0116431EB3FBF6F35B1C43F4F7
:100A900080431B0549D092B301EBC10202EB011167
:100AA000401EB0FBF1F0401CC0F30B0040F480404E
:100AB00040F400402168CA694CF6FF739A43104322
:100AC000C861D4E9071001432068026822F0C0021F
:100AD00011430160D4E9030101432068826848F2B0
:100AE000FF339A4311438160D4E90501084321682B
:100AF000CA6822F0FF021043C86001E00EE016E071
:100B00002068016841F0010101602564202084F81B
:100B10003D00256384F83E50002070BD01EB410686
:100B2000431EB3FBF6F35B1CB3E70120C2E701EB06
:100B30004101401EB0FBF1F0401CC0F30B00B7E7D1
:100B4000A086010080841E0000093D0040420F0085
:100B500010B586B0002100910191029103910068C7
:100B60001349884222D1134CA06940F00800A061CB
:100B7000A069694600F0080004904FF440700090AE
:100B800012200190032003900B48FFF721FE0B4831
:100B9000416841F0E06141F002014160E06940F4E8
:100BA0000010E061E06900F40010049006B010BD90
:100BB0000054004000100240000C014000000140C1
:100BC0000248816802781144816070472800002043
:100BD000074810B5016841F010010160032000F0E2
:100BE00075F80F2000F006F800F024F8002010BD82
:100BF0000020024070B50D4D04464FF47A712878FC
:100C0000B1FBF0F00A490968B1FBF0F001F0F9FA24
:100C100048B9102C07D200222146501E00F036F8A9
:100C200000206C6070BD012070BD00002800002015
:100C3000340000200C4808B5816941F00101816150
:100C4000816901F001010091C16941F08051C161E8
:100C5000C06900F0805000900448416821F0E061D4
:100C600041F00071416008BD0010024000000140E9
:100C7000002809DB00F01F0201219140400980009B
:100C800000F1E020C0F8001170470000F0B40E4BF6
:100C90001B680C46C3F30223C3F10705042D00D9DA
:100CA0000425191D072901D2002300E0DB1E0126BF
:100CB00006FA05F1491E214099409E40761E1640D5
:100CC0003143F0BC04F0EEB90CED00E0064900F051
:100CD000070208684FF6FF03184040EA0220034A63
:100CE00010430860704700000CED00E00000FA05BA
:100CF00010B50C0607D501F0070101EB810100EBEF
:100D0000C100283005E001EB810100EBC10000F5D6
:100D1000B47099B232B1012202730181190C418180
:100D2000002010BD00220273C180F9E7704701EB7B
:100D3000810200EBC202D0F8EC02D26B03F045B99D
:100D400001EB810200EBC202D0F8EC02D2F87C2168
:100D500003F09EB970B504460B0601F0070000EBE6
:100D6000800104EBC1014FF001024FF0000503D5F3
:100D700081F82920283103E081F8695101F5B47127
:100D8000087094F8A802012808D084F8A8222068E6
:100D900003F0E0FD84F8A852002070BD022070BD71
:100DA00070B5044601F00F006268904201D901203D
:100DB00070BD0B0601F0070000EB800104EBC101E0
:100DC0004FF001024FF0000503D581F829202831AA
:100DD00003E081F8695101F5B4718D70087094F8E1
:100DE000A802012808D084F8A822206803F04FFE4A
:100DF00084F8A852002070BD022070BD2DE9F05F7C
:100E000004685FEA424C0B788D69B4F850C04FF02B
:100E100000064BF68F7948F2800A48F68F7B48F23D
:100E2000C00E4FF480672AD54FF0020808EBC308C4
:100E3000C44407EB4C07E45BC4F30904A54203D3A5
:100E40002D1B8D6101D00BE08E61066836F82350B2
:100E500005EA090585F4005545EA0A0526F82350F8
:100E6000520609D50D78036833F8252002EA0B02F3
:100E700042EA0E0223F8252084B30A8929E04FF0C4
:100E8000060808EBC308C44407EB4C07E45BC4F353
:100E90000904A54203D32D1B8D6101D00BE08E61A7
:100EA000066836F8235005EA090585F4005545EA39
:100EB0000A0526F82350520609D40B78056835F840
:100EC000232002EA0B0242EA0E0225F823202CB16D
:100ED0004A8949690068234604F0B2F82046BDE813
:100EE000F09F2DE9F05F054600680C465FEA426C12
:100EF00016468B692278B0F850C048F68F774CF2CE
:100F000080094FF4004B4FF6FF7E4FF4806A4FF09C
:100F1000000172D54FF0020808EBC208E0440AEB6A
:100F2000480C30F80C00C0F30900834211D91B1A99
:100F3000A3610FD0730407D52E6836F822303B40EA
:100F400043EA090326F8223094F82420012A47D0E6
:100F500052E1A161607810B1012813D01AE028682D
:100F6000B0F85030184400EB0210B0F80424C2F37B
:100F70000902A0F80424B0F8042442F40042A0F8C6
:100F8000042407E02868B0F85030184400EB021041
:100F9000A0F804146278286812B1012A11D018E070
:100FA000B0F850100844217800EB0110B0F80C1490
:100FB000C1F30901A0F80C14B0F80C1441F400417D
:100FC00005E0B0F850201044227800EB0210A0F8A1
:100FD0000C1421782846FFF7AAFE700472D40BE1A6
:100FE000626902446261E2690244E2612369226A41
:100FF0009A4203D31846111A04E03EE084F8241004
:101000000AB110462162617811B1012929D031E07D
:101010002968B1F850201144227801EB0211B1F88F
:101020000424C2F30902A1F8042401F204413E2879
:1010300007D94209C30600D1521E0B884BEA82220F
:1010400007E048B14208C30700D0521C0B880EEAE3
:10105000822213430B800DE00A8842F400420A808A
:1010600008E02968B1F850201144227801EB021100
:10107000A1F8040483B22289BAE04FF0060808EB15
:10108000C208E0440AEB480C30F80C00C0F3090039
:10109000834211D31B1AA3610FD0730407D42E68A7
:1010A00036F822303B4043EA090326F8223094F810
:1010B0002420012A51D09FE0A161607818B1012855
:1010C00014D01BE03FE02868B0F85030184400EB23
:1010D0000210B0F80424C2F30902A0F80424B0F806
:1010E000042442F40042A0F8042407E02868B0F881
:1010F0005030184400EB0210A0F8041462782868FD
:1011000012B1012A11D018E0B0F85010084421782B
:1011100000EB0110B0F80C14C1F30901A0F80C1495
:10112000B0F80C1441F4004105E0B0F85020104430
:10113000227800EB0210A0F80C1421782846FFF763
:10114000F6FD700458D42278296831F8220038401E
:1011500040EA090021F822004EE06269024462611F
:10116000E2690244E2612369226A9A4203D3184683
:10117000111A216204E00AB11046216284F8241099
:101180006278296812B1012A28D02FE0B1F85020E6
:101190001144227801EB0211B1F80C24C2F30902C8
:1011A000A1F80C2401F20C413E2807D94209C306DC
:1011B00000D1521E0B884BEA822207E048B1420858
:1011C000C30700D0521C0B880EEA822213430B8007
:1011D0000CE00A8842F400420A8007E0B1F850208F
:1011E0001144227801EB0211A1F80C04628983B248
:1011F0006169286803F042FF2278296831F82200EB
:1012000048F6BF73184080F0300048F2800318435E
:1012100021F822000020BDE8F09F01F0070101EB5A
:10122000810100EBC100D0F8840170472DE9F04145
:1012300004460F0601F0070000EB800104EBC1013A
:101240004FF001064FF0000503D581F829602831E1
:1012500003E081F8695101F5B471022B08700A614D
:10126000CB7000D10D7194F8A802012809D084F840
:10127000A862206803F01EFA284684F8A852BDE848
:10128000F0810220FBE710B501F0070404EB8401B4
:1012900000EBC101C1E95F230022C1F8842181F87C
:1012A000692181F86841006801F5B47103F044FCDC
:1012B000002010BD70B504460D4601F007006168BE
:1012C000884201D9012070BD29064FF000064FF079
:1012D000010207D500EB800104EBC10181F8292050
:1012E000283107E005EB850104EBC10181F8696154
:1012F00001F5B4718A70087094F8A802012807D02B
:1013000084F8A822206803F0FEFB680702D006E0FC
:10131000022070BD04F52C71206803F0B6FB84F840
:10132000A862002070BD10B501F0070404EB840131
:1013300000EBC101C1E90F23012281F84C208B642D
:1013400000234B6481F8292001F8284F006803F03E
:10135000F3FB002010BD00001FB50446006803F039
:101360006BFE010403D5204601F0D8FE1FBD4105E8
:101370000DD5206830F8441F21F48061018020469B
:1013800000F010F90021204600F027F91FBD4104AC
:1013900005D5206830F8441F21F4804174E08104B1
:1013A00005D5206830F8441F21F400516CE0C104D9
:1013B00014D5206830F8401F21F004010180206816
:1013C00030F8401F21F008010180204600F0FDF8B0
:1013D000206830F8441F21F4805155E0010540D5C4
:1013E000D4F800200020694632F8203021F810306F
:1013F000401CC0B20828F7D332F8400F40F001007B
:101400001080206830F8402F22F00102028020680E
:10141000B0F844205205FBD530F8442F22F4806206
:1014200002800020236831F8102023F82020401C7F
:10143000C0B20828F6D3206830F8401F41F00801F8
:101440000180206830F8441F21F400610180206889
:1014500030F8401F41F004010180204600F0F2F80E
:101460001FBD810509D5206830F8441F21F40071A3
:101470000180204600F0ADF81FBDC005FCD52068F6
:1014800030F8441F21F4807101801FBD2DE9F04127
:1014900086B0040004D094F8A902002520B108E029
:1014A000012006B0BDE8F08184F8A852204600F083
:1014B0005BF8032084F8A902206803F0DFFA04F146
:1014C0001001142288466846FFF705F894E80F00DB
:1014D00003F03EFA0227D0BB0021206803F0C6FDCE
:1014E000002001260EE000BF00EB800104EBC101EB
:1014F00081F8296001F8280F401CCD700D614D6105
:10150000C0B28D6161688142EED8002012E000BF58
:1015100000EB800104EBC10181F8695181F8680199
:1015200081F86B51C1F87851C1F87C51401CC0B2B0
:10153000C1F8805161688142EAD814224146684668
:10154000FEF7C9FF94E80F0003F08FFA10B184F89A
:10155000A972A5E784F8245084F8A962206803F0F2
:1015600082FA00209DE7000008B500680B49884218
:1015700012D10B48C16941F40001C161C069002268
:1015800000F40000009011461420FFF77FFBBDE837
:1015900008401420FFF76CBB08BD0000005C004051
:1015A0000010024070B5044680680125022801D071
:1015B000FFF7F9F82946D4F8EC0202F052FED4F80D
:1015C000EC02BDE8704002F00EBED0F8EC0202F072
:1015D00032BED0F8EC0202F038BE10B5044690F8E6
:1015E000A80201280BD0012084F8A80284F8241056
:1015F000206803F03DFD002084F8A80210BD022001
:1016000010BDD0F8EC2200F52C71104602F035BE6A
:1016100010B5044690F8A802012810D0012084F8E3
:10162000A802206803F0F9FC01212046FFF77EFBA9
:10163000206803F016FA002084F8A80210BD0220EA
:1016400010BD000010B50446D0F8EC0202F054FEC4
:10165000A069002804D00348016841F00601016038
:1016600010BD000010ED00E02DE9F84305460078BC
:10167000354CC00754D0E0690026C00008D4E069AA
:1016800040F08050E061E069012600F08050009059
:101690002E480168C90512D40168804641F4807162
:1016A0000160FFF78BF9074605E000BFFFF786F9F9
:1016B000C01B642823D8D8F80000C005F6D5206ADE
:1016C00010F4407021D0A98801F4407181421CD0EF
:1016D000206A1F49012220F440700A6000220A603B
:1016E0002062C00711D0FFF769F9074641F2883838
:1016F00008E000BFFFF762F9C11B414502D9032092
:10170000BDE8F883206A8007F4D5206A696820F470
:101710004070084320621EB1E06920F08050E06113
:101720002878800705D56068A96820F44040084300
:1017300060602878C00605D56068E96820F48000FC
:10174000084360600020DBE70010024000700040AA
:10175000400442422DE9F0470F46050061D0434E58
:10176000306800F00700B84209D2306820F0070066
:1017700038433060306800F00700B84251D1286823
:101780003B4C810712D5400703D5606840F4E06008
:1017900060602878000703D5606840F4605060609E
:1017A0006068A96820F0F000084360602878C007EE
:1017B00028D06868012810D02168022810D0890735
:1017C00000292EDA616821F0030101436160FFF70F
:1017D000F5F8804641F288390DE021688903EFE78A
:1017E0008901EDE7FFF7EAF8A0EB0801494502D9C6
:1017F0000320BDE8F0876068696800F00C00B0EB7A
:10180000810FEFD1306800F00700B8420BD9306883
:1018100020F0070038433060306800F00700B8421D
:1018200001D00120E5E72878400705D56068E96820
:1018300020F4E060084360602878000706D56068FF
:10184000296920F4605040EAC100606000F038F877
:101850006168084AC1F30311515CC8400649086039
:1018600006480068FFF7C6F90020C2E700200240E2
:10187000001002409A5B0008340000202C00002079
:101880000448054900684968044AC1F30221515CD3
:10189000C84070473400002000100240AA5B0008D6
:1018A0000448054900684968044AC1F3C221515CF3
:1018B000C84070473400002000100240AA5B0008B6
:1018C0000E4A51680E4801F00C03042B11D0082B6E
:1018D0000FD10C48C1F38343C903C05C0AD55168DA
:1018E000084AC1F34041921E515C054A5043B0FB87
:1018F000F1F070470449484370470000001002406F
:1019000000127A008A5B000800093D002DE9F84FBB
:10191000040070D02078C04DC00749D06868C0F37B
:101920008100012807D06868C0F38100022809D12E
:101930006868C00306D52868800339D56068002828
:10194000E7D035E06068B0F5803F0BD010B1B0F55E
:10195000A02F11D0286820F480302860286820F457
:10196000802002E0286840F480302860606890B1F0
:10197000FFF724F806460AE0286840F48020286033
:10198000F0E700BFFFF71AF8801B642873D82868B7
:101990008003F7D50CE0FFF711F8064605E000BF1D
:1019A000FFF70CF8801B6428F0D828688003F7D470
:1019B00020789A4E80074FF001094FF0000839D582
:1019C000686810F00C0F07D06868C0F38100022827
:1019D00009D16868C00306D42868800714D5206937
:1019E000012808D110E02069B0B1C6F80090FEF7D8
:1019F000E5FF074605E00AE1FEF7E0FFC01B02280D
:101A0000C4D828688007F7D52868616920F0F800F5
:101A100040EAC10028600DE0C6F80080FEF7CEFF66
:101A2000074604E0FEF7CAFFC01B022823D8286837
:101A30008007F7D4207800072CD57948A169D9B15F
:101A4000C0F80090FEF7BAFF074604E0FEF7B6FFC5
:101A5000C01B02280FD8686A8007F7D571484FF479
:101A6000FA510068B0FBF1F0009000BF0098411EF1
:101A70000091FAD20EE080E0C0F80080FEF79EFFF1
:101A8000074604E0FEF79AFFC01B022875D8686A73
:101A90008007F7D42078400760D5E8690027C000A8
:101AA00008D4E86940F08050E861E869012700F057
:101AB000805000905C480168C90513D401688346D2
:101AC00041F480710160FEF779FF824606E000BFB5
:101AD000FEF774FFA0EB0A0064284ED8DBF8000084
:101AE000C005F5D5E06801280AD008B1052813D053
:101AF000286A20F001002862286A20F0040002E031
:101B0000286A40F001002862E06841F2883B98B101
:101B1000FEF754FF82460BE0286A40F0040028627A
:101B2000EEE700BFFEF74AFFA0EB0A0159455AD87D
:101B3000286A8007F6D50CE0FEF740FF824605E0F4
:101B4000FEF73CFFA0EB0A0159454CD8286A8007F4
:101B5000F6D41FB1E86920F08050E861E06988B3ED
:101B60006968C1F38101022944D00228C6F8608067
:101B700004D0FEF723FF044638E034E0FEF71EFFF2
:101B8000074604E0FEF71AFFC01B02282BD828687E
:101B90008001F7D4206AB0F5803F05D16868A1685C
:101BA00020F4003008436860D4E9080108436968FC
:101BB00021F4741108436860C6F86090FEF7FEFED9
:101BC000044606E025E000BFFEF7F8FE001B0228F1
:101BD00009D828688001F7D51BE000BFFEF7EEFEAC
:101BE000001B022802D90320BDE8F88F2868800175
:101BF000F4D40EE00128F7D06868226A00F480313E
:101C0000914204D1616A00F47010884201D0012031
:101C1000EAE70020E8E7000000100240000042422E
:101C200080044242340000200070004070B504007F
:101C300009D0606A002540B125616561A56294F80C
:101C4000510040B10CE0012070BD6068B0F5827FAA
:101C5000F4D0E561F2E784F85050204600F040F8F7
:101C6000022084F851002068016821F040010160E1
:101C7000A088218900F4827001F404410843A189FD
:101C800001F400610843217C01F002010843217D39
:101C900001F001010843218B01F400710843217F09
:101CA00001F03801084394F8201001F08001084346
:101CB000218D01F40051084321680860A0690421C6
:101CC00001EA1040216848602068C16921F4006180
:101CD000C1616565012084F85100002070BD0000DD
:101CE00030B585B0002400940194029403940068F8
:101CF0001449884223D11448816941F4805181619B
:101D0000816901F480510491816941F0040181618C
:101D100080690E4D00F004000490A0200090022085
:101D200001900320039069462846FEF751FD4020AC
:101D3000CDE90004694628460294FEF749FD05B046
:101D400030BD00000030014000100240000801409A
:101D50002DE9F84F044690F85100984616460F4674
:101D60000025012801D0022598E060684FF0040B9F
:101D7000B0F5827F01D1A068F8B194F85000012835
:101D800026D04FF0010984F85090FEF717FE8246E6
:101D9000002F7FD0002E7DD084F851B000206065E8
:101DA000A763A687E6872063A086E0862064606438
:101DB000A068B0F5004F0DD016E084F851B013467E
:101DC0000A462046CDF8008000F024F9BDE8F88FDF
:101DD0000220FBE72068016821F0400101602068D3
:101DE000016821F48041016020680168490603D43C
:101DF000016841F040010160E068D8B13BE0206833
:101E00008168C90709D0007BA16B0870A06B401CDA
:101E1000A063E08F401EE0870CE0FEF7CFFDA0EB53
:101E20000A01414503D3B8F1FF3F03D006E0B8F102
:101E3000000F03D0E08F0028E1D11FE003252BE045
:101E400020688168C90709D0C068A16B0880A06BB1
:101E5000801CA063E08F401EE0870CE0FEF7AEFD23
:101E6000A0EB0A01414503D3B8F1FF3F03D0E5E7FA
:101E7000B8F1000FE2D0E08F0028E1D15246414690
:101E8000204601F022FB08B120206065606D00E073
:101E900000E008B1012501E084F85190002084F8A9
:101EA0005000284692E72DE9F84F044690F850007C
:101EB0000026984615468A4601280CD0012784F84A
:101EC0005070FEF77BFD814694F85100B34601281F
:101ED00004D002269AE00220BDE8F88FBAF1000F84
:101EE0006FD0002D6DD0032084F85100C4F854B099
:101EF000C4F830A0A586E586C4F838B0A4F83CB094
:101F0000A4F83EB0C4F844B0C4F840B0A068B0F53E
:101F1000004F09D12068016821F04001016020686C
:101F2000016841F48041016020680168490603D4DA
:101F3000016841F040010160E068B0F5006F606841
:101F400003D058B3012D29D049E008B1012D1FD18C
:101F5000206B21680088C86006E0206881688907D6
:101F600009D5216B0988C160206B801C2063E08E3D
:101F7000401EE0860CE0FEF721FDA0EB0901414583
:101F800003D3B8F1FF3F03D006E0B8F1000F03D050
:101F9000E08E0028E1D125E0032635E0206B2168A2
:101FA0000078087306E02068816889070AD5216BEC
:101FB00009780173206B401C2063E08E401EE08690
:101FC0000DE01FE0FEF7FAFCA0EB0901414503D349
:101FD000B8F1FF3F03D0DFE7B8F1000FDCD0E08EAF
:101FE0000028E0D14A464146204601F09CFA08B15B
:101FF00020206065A06818B92068C16880680090DA
:10200000606D08B1012601E084F8517084F850B089
:10201000304661E72DE9FF4F81B0044690F850004B
:1020200000260E9F1D4693464FF0010901280FD050
:102030004FF0010A84F850A0FEF7C0FC804694F8E7
:102040005100616801280DD0B1F5827F08D103E00D
:10205000022005B0BDE8F08FA16809B9042801D0BD
:102060000226C9E00298002865D0BBF1000FFBD022
:10207000002DF9D094F85100042802D0052084F8EE
:10208000510000206065C4F838B0E587A587029943
:102090002163E586A586206460642068016849069E
:1020A00003D4016841F040010160E068B0F5006FC1
:1020B000606803D0F0B3012D47D081E008B1012D55
:1020C0003CD1206B21680088C860206B801C206395
:1020D000E08E401EE08631E02068816889070FD5D8
:1020E000E18E69B1B9F1010F0AD1216B0988C16094
:1020F000206B801C2063E08E401EE0864FF00009BC
:1021000020688168C9070CD0E18F51B1C068A16B0C
:102110000880A06B801CA063E08F401EE0874FF01A
:102120000109FEF74BFCA0EB0800B84206D3781C6F
:1021300004D001E009E05BE003265BE0E08E0028CC
:10214000CAD1E08F0028C7D140E0206B2168007819
:102150000873206B401C2063E08E401EE0862FE059
:102160002068816889070FD5E18E69B1B9F1010F47
:102170000AD1216B09780173206B401C2063E08E2B
:10218000401EE0864FF0000920688168C9070CD026
:10219000E18F51B1C068A16B0870A06B401CA063B7
:1021A000E08F401EE0874FF00109FEF707FCA0EB2F
:1021B0000800B84202D3781C02D0BAE7002FB8D08A
:1021C000E08E0028CCD1E08F0028C9D142463946A4
:1021D000204601F0A8F918B10126202060650BE027
:1021E000A06818B92068C16880680090606D08B167
:1021F000012601E084F851A0002084F85000304608
:1022000027E710B5401EB0F1807F01D3012010BD3B
:102210004FF0E02460610F21601702F043FF0020BF
:10222000A06107202061002010BD10B590F83C206F
:10223000012A22D0012280F83C20CA688C6822F44E
:10224000407222434C6822F4806222430C6822F4DC
:10225000006222430C6922F4805222434C6922F42A
:1022600000522243C969002322F480420A430168D4
:102270004A6480F83C30002010BD022010BD0000F0
:1022800070B590F83C20012A26D0012480F83C400B
:10229000022280F83D2003685A689D6822F070068B
:1022A0000A6832435A600D4B02689A4208D0B2F174
:1022B000804F05D00A4B9A4202D00A4B9A4204D171
:1022C000496825F080031943916080F83D40002162
:1022D00080F83C10084670BD022070BD002C014003
:1022E000000400400008004010B5040003D094F83A
:1022F0003D0010B107E0012010BD002084F83C0033
:10230000204600F01FF8022084F83D00211D2068BF
:1023100001F0B6F9012084F8460084F83E0084F804
:102320003F0084F8400084F8410084F8420084F8BB
:10233000430084F8440084F8450084F83D00002000
:1023400010BD000008B500680649884208D106485B
:10235000816941F400618161806900F4006000904E
:1023600008BD0000002C01400010024070B504467A
:1023700090F83C000025012817D0012684F83C6025
:10238000022084F83D002068826822F0770222F45F
:102390007F4282600868502838D00DDC20284FD05A
:1023A00005DC90B3102811D14AE0022070BD30281E
:1023B00046D040280AD13BE060282FD070280DD0AD
:1023C000B0F5805F03D0B0F5005F12D0012584F82E
:1023D0003D60002084F83C00284670BDCB68D1E900
:1023E0000121206801F082F92068816841F07701BD
:1023F00009E0CB68D1E90121206801F077F9206874
:10240000816841F480418160E1E719E0CA68496868
:10241000206801F01FFA5021206806E0CA68496868
:10242000206801F028FA6021206801F069F9CEE700
:10243000CA684968206801F00DFA40212068F4E775
:10244000226801461046F0E700B585B000210091F2
:1024500001910291039100680B49884212D10B4807
:10246000816941F0040181618069694600F00400DE
:1024700004904FF4407000900220019003900448B3
:10248000FEF7A6F905B000BD002C01400010024087
:102490000008014070B5044690F83C000025012872
:1024A0000FD0012084F83C006AB1042A0FD0082A1A
:1024B00011D00C2A13D00125002084F83C002846B6
:1024C00070BD022070BD206801F022F9F4E7206899
:1024D00001F046F9F0E7206801F06EF9ECE72068BA
:1024E00001F096F9E8E710B5040003D094F83D0038
:1024F00010B107E0012010BD002084F83C00204608
:1025000000F01EF8022084F83D00211D206801F033
:10251000B7F8012084F8460084F83E0084F83F00B4
:1025200084F8400084F8410084F8420084F84300B5
:1025300084F8440084F8450084F83D00002010BD74
:10254000704770B5044690F83C0000260D460128FF
:102550000FD0012084F83C006AB1042A1DD0082A5B
:102560002FD00C2A3FD00126002084F83C003046B2
:1025700070BD022070BD206801F0CAF82068816932
:1025800041F0080181612068816921F004018161C5
:10259000206881692A69114311E0206801F0E0F8A0
:1025A0002068816941F4006181612068816921F4BA
:1025B00080618161206881692A6941EA0221816123
:1025C000D2E7206801F0F8F82068C16941F00801FD
:1025D000C1612068C16921F00401C1612068C1693D
:1025E0002A69114311E0206801F012F92068C169DD
:1025F00041F40061C1612068C16921F48061C16159
:102600002068C1692A6941EA0221C161ACE710B5BD
:10261000040003D094F83D0010B107E0012010BD84
:10262000002084F83C00204600F01EF8022084F8C8
:102630003D00211D206801F023F8012084F84600A8
:1026400084F83E0084F83F0084F8400084F841009C
:1026500084F8420084F8430084F8440084F845007C
:1026600084F83D00002010BD704770B5040004D010
:1026700094F84100002510B106E0012070BD84F8F7
:102680004050204600F024F8242084F841002068BF
:10269000C16821F40051C160204601F0FFF82068B4
:1026A000016921F4904101612068416921F02A010A
:1026B00041612068C16841F40051C1606564202017
:1026C00084F8410084F842006563002070BD00007A
:1026D00030B585B0002400940194029403940068FE
:1026E000174988422AD11748816941F480418161A4
:1026F000816901F480410491816941F0080181619F
:102700008069114D00F008000490402000900220E4
:1027100001900320039069462846FEF759F880206F
:10272000CDE90004694628460294FEF751F80748AF
:10273000416841F0E06141F00401416005B030BD05
:102740000038014000100240000C01400000014030
:102750002DE9F843044690F841001F4616460D4601
:10276000202802D00220BDE8F8837DB176B1002098
:102770006064212084F84100FEF720F9A684804699
:10278000E684A068B0F5805F02D003E00120EAE7AC
:10279000206910B12E4600250EE000260CE08021B5
:1027A000204601F0D7F8A0B9AEB116F8010B2168A8
:1027B0004860E08C401EE084E08C43464FF000020D
:1027C00000970028EBD14FF04001204601F0C2F8FD
:1027D00030B10320C7E735F8020BC0F30800E6E785
:1027E000202084F841000020BDE7FEE7F0B500237B
:1027F0000A24302537261F4611E000BFB4EB107FB6
:1028000002D905EB107C01E006EB107C01F813C047
:1028100001EB430C00015B1C8CF80170DBB29342AE
:10282000ECD3F0BD2DE9F04186B00024244800949B
:10283000019402940394816941F0100181618169DE
:1028400001F010010491816941F0200181618169E9
:1028500001F020010491816941F0040181618169E5
:1028600001F004010491816941F0080181618069EE
:10287000144F00F008004FF4005504900022294640
:102880003846FEF795F8DFF84080002218214046D0
:10289000FEF78EF80095022601250396CDE9015436
:1028A00069463846FDF794FF1820CDE90005CDE9CB
:1028B000024669464046FDF78BFF06B0BDE8F08151
:1028C0000010024000100140000801400F4810B500
:1028D0000D4901604FF48271416000218160C16047
:1028E0004FF400720161C0E905121822C0E9072106
:1028F000416281620A21C162FFF798F9002801D084
:1029000072B6FEE710BD0000003001402402002036
:1029100010B596B000240F9410941194129413944F
:102920001C2168461494FDF708FE202107A8FDF736
:1029300004FE2F482D49C0E900144FF6FF71C0E98D
:102940000241046144618461FFF7CEFC08B172B6B4
:10295000FEE74FF480500F900FA92548FFF706FDC2
:1029600008B172B6FEE72248FFF751FE08B172B611
:10297000FEE71F48FFF7B7FD08B172B6FEE71394F4
:1029800013A91B481494FFF77BFC08B172B6FEE74D
:102990006020CDE90004029403940494059400227D
:1029A000694613480694FFF7CCFD08B172B6FEE7FE
:1029B000042269460E480094FFF76CFD08B172B618
:1029C000FEE70794089409944FF400500A94CDE967
:1029D0000B4007A906480E94FFF727FC08B172B612
:1029E000FEE70348FFF730FD16B010BD002C014094
:1029F0007C02002010B500220F49104801F0BEFAF9
:102A000008B1FDF7D0FE0E490C4801F09BFC08B15F
:102A1000FDF7C9FE0B49094801F0BCF808B1FDF704
:102A2000C2FE064801F0E4FC002803D0BDE81040D7
:102A3000FDF7B9BE10BD00005000002018050020B1
:102A400098010020AC000020FEE7FEE708B500205A
:102A500000F008F950208DF8000073208DF8010077
:102A60006423022269460348FFF71DFA012000F0A3
:102A7000F9F808BD780400200449054A0968B1FB4B
:102A8000F2F14143491EFDD270470000340000209E
:102A9000C0C62D0070B5054600F00DF90446C0F320
:102AA00080166EB115B1C4F3420028704021072092
:102AB00000F0FEFAA00603D52021072000F0F8FA66
:102AC000304670BD0FB47CB514460D4606465822FC
:102AD00009A95D48FDF7FFFC5C4B0120DE60DD804D
:102AE0001C8100F0BFF8002000F0B2F80520FDF7CF
:102AF0005DFE0821002000F0DBFA3F21012000F0FC
:102B0000D7FA0321022000F0D3FA0321084600F08F
:102B1000CFFA0321042000F0CBFA0221052000F0B7
:102B2000C7FA0F21062000F0C3FA0E21072000F09B
:102B3000BFFA0021082000F0BBFA0021092000F0B4
:102B4000B7FAE7248DF803408DF802408DF8014074
:102B50008DF804408DF80040052269460A2000F0F7
:102B6000BFFAC2208DF803008DF802008DF8010035
:102B70008DF804008DF80000052269460B2000F056
:102B8000AFFAC3210C2000F093FAC4210D2000F00D
:102B90008FFAC5210E2000F08BFAC6210F2000F01D
:102BA00087FA8DF803408DF802408DF801408DF8CA
:102BB00004408DF8004005226946102000F090FA8C
:102BC0000021112000F074FA0021122000F070FAA8
:102BD0000021132000F06CFA0021142000F068FAA4
:102BE0000021152000F064FA0021162000F060FAA0
:102BF000FFF72CFF00211C2000F05AFA00211D20B5
:102C000000F056FA02F0C8FB0F21084600F090F9D8
:102C1000032000F067F9012000F036F9022000F0EF
:102C200018F900F029F8202000F07AF900F006F9F0
:102C30004C2000F022F900F037F800F031F800F0F5
:102C40007FF87CBC5DF814FB78040020380000207D
:102C5000020003480189C06800D00122FDF7A8BE28
:102C60003800002002000348C188C06800D001225B
:102C7000FDF79EBE3800002010B51D2000F0A0F822
:102C800020F004011D2000F013FA00211C2000F0A8
:102C90000FFA02490020C87010BD00003800002063
:102CA000FF21E22000F004BAFF21E12000F000BA89
:102CB000602000F085B8072000F082B87FB50400DE
:102CC0001248134D06D0062C1ED8022C07D2005DE8
:102CD000052206E0DDE90212C5E90412F7E7005D0E
:102CE000012202A900F0FCF90848A978801F005DC4
:102CF00000F0DEF9022000F063F80121A140084352
:102D0000C1B2022000F0D4F97FBD0000B85B00081A
:102D10003800002013B5052269460A2000F0E0F9CA
:102D200005226946102000F0DBF90448817820294B
:102D300000D32021112000F0BBF91CBD3800002079
:102D400010B5002000F03CF820F00201BDE8104072
:102D5000002000F0ADB910B500F010F8172000F019
:102D60002FF800F00104FFF79BFF602000F028F827
:102D70000CB1012010BD002010BD000038B5054683
:102D80000D4884788C4200D90C460020FFF76AFF7A
:102D900061208DF800006423012269460748FFF78F
:102DA00082F86423224629460448FEF7D1FF012019
:102DB000FFF758FF38BD00003800002078040020DD
:102DC00038B504460020FFF74DFF04F01F008DF8D2
:102DD00000006423012269460848FFF764F8642371
:102DE000012206480DF10101FEF7B2FF9DF80140F6
:102DF0000120FFF737FF204638BD0000780400208F
:102E0000F8B5044615460E460020FFF72BFF04F0E8
:102E10001F008DF800006423012269460648FFF771
:102E200042F864232A4631460348FEF791FF012009
:102E3000FFF718FFF8BD000078040020702107207C
:102E400000F036B908B13F2100E00021012000F078
:102E50002FB910B504460020FFF7B2FF20F00C0197
:102E60001CB1012C06D041F00C01BDE8104000203F
:102E700000F01EB941F00801F7E77F2800D37F205A
:102E80000146052000F014B92DE9F04107464FF046
:102E900000080620FFF794FF114D002620F02804BB
:102EA0006E71022F0ED0012F10D06E7121460620B8
:102EB00000F0FEF80620FFF783FFA0420BD14FF091
:102EC000010809E06E7144F02004EFE70120687109
:102ED00044F00804EAE76E714046BDE8F081000066
:102EE0003800002010B504460620FFF769FF20F0E7
:102EF0000601032C0DD0022C05D0012C06D054B1B4
:102F0000042C06D007E041F0040104E041F0020186
:102F100001E041F00601BDE81040062000F0C8B80D
:102F2000202800D3202001498870704738000020F5
:102F300000F00F0060F31F11042000F0B9B800008A
:102F400010B50020FFF73CFF40F00301002000F027
:102F5000AFF80B49D1E90401084305D0084905221F
:102F600010310A2000F0BCF8FFF79EFEFFF798FE34
:102F70000120FFF76DFEBDE810409620FFF77CBDF5
:102F80003800002070B505460C460020FFF760FEB3
:102F90000020FFF715FF20F0010040F002010020A3
:102FA00000F086F80120FFF753FE9620FFF764FD3E
:102FB0002146284600F060F80120FFF749FE0F2067
:102FC000FFF75AFDBDE870400020FFF741BE10B585
:102FD0000020FFF73DFEFFF767FEBDE81040FFF75A
:102FE0005FBE2DE9F04115460E460446FFF763FE2D
:102FF0000746002020707021072000F059F8C7F321
:1030000040102070C7F300103070C7F38010287094
:10301000BDE8F0813EB50C460546FFF70FFF21469F
:103020002846FFF7AFFFFDF7C9FC0446012201A9BE
:103030000820FFF7E5FEFFF73EFE10F0300F04D149
:10304000FDF7BCFC001B0A28F0D30A4A02A9684617
:10305000FFF7C7FF074C9DF80050207810B1FFF72D
:1030600027FE60700020FFF715FDFFF71DFE2846C4
:103070003EBD00003800002038B505460C46002053
:10308000FFF7F0FDA0208DF80000642301226946BF
:103090000648FEF708FF6423224629460348FEF748
:1030A00002FF0120FFF7DEFD38BD0000780400209C
:1030B00038B505460C460020FFF7D4FD45F020004A
:1030C0008DF800008DF80140642302226946034810
:1030D000FEF7E9FE0120FFF7C5FD38BD78040020AA
:1030E000F8B5044615460E460020FFF7BBFD44F038
:1030F00020008DF800006423012269460648FEF78F
:10310000D2FE64232A4631460348FEF7CCFE012056
:10311000FFF7A8FDF8BD0000780400202DE9F84F66
:10312000044640F68F7B48F60F794FF480684FF0E5
:10313000000AC0E1B0F8441011F00F0539D030F8A2
:10314000256031047ED530F8251001EA0B0141F0ED
:10315000800120F8251005EB850004EBC00797F8E7
:10316000740107F5B47700286DD0F87802286BD089
:103170003978226832F8210048F68F73184048F2F7
:10318000C003184322F821003978206830F8212044
:10319000B0F8503052047DD5022202EBC1015A181A
:1031A00008EB4201415A8905890D009173D03A8993
:1031B000DFE0C9062DD4018801EA090141F400418C
:1031C0000180206804F12805B0F8503029780222E7
:1031D00002EBC1015A1808EB4201405AC0F3090042
:1031E0006064E16B0844E06300212046FDF79FFD29
:1031F00094F8240000289CD0A869002899D194F85C
:103200002400216840F08000A1F84C0084F824A03C
:1032100051E1018804F5B4750A0521D5B0F85020B4
:103220002B78062101EBC3010A4408EB4201405A06
:1032300004F52C71C0F30903EB61EA88206801F002
:10324000FFFE02E0B0E070E080E02068018801EA63
:103250000B0141F0800101802046FEF7D2F92AE1FE
:103260000904D5D5018801EA0B0141F080010180F4
:103270002068B0F850202B78062101EBC3010A44E6
:1032800008EB4201405A83059B0DEB6110D0696940
:1032900071B101E061E05FE0EA88206801F0D0FEF2
:1032A000E96968690844686100212046FDF748FD26
:1032B000216808880205ABD4C0F301300328A7D0E9
:1032C000B1F850000844B0F80C14C1F30901A0F89B
:1032D0000C142A6900F20C403E2A09D95109D20681
:1032E00000D1491E02884FF4004343EA812109E0DE
:1032F000B2B15108D20700D0491C02884FF6FF73C3
:1033000003EA81210A430280216808884BF68F7204
:10331000104080F4405048F2800210430880CAE018
:10332000018841F400410180EEE72068B0F85020A8
:103330003B78062101EBC3010A4408EB4201415AE4
:103340008905890D009118D0FA8812E03246394675
:103350002046FDF753FD00900FE0062202EBC1016D
:103360005A1808EB4201415A8905890D009104D091
:103370007A897969009B01F063FEF8690099084435
:10338000F8617969009808447861B86918B13969B9
:103390000098814204D939782046FDF7D1FC03E03A
:1033A0003946206801F0C8FB30062FD505EB8500B3
:1033B00004EBC001206830F8252002EA090242F43B
:1033C000004220F8252091F82B00283101281ED03A
:1033D000F0056CD42068B0F850300D78022202EB72
:1033E000C5021A4408EB4202805A8A69C0F30900F8
:1033F000824255D9121A8A6154D04A6902444A61FC
:10340000CA691044C861206801F096FB53E0C1F816
:1034100018A0087B524608B3700620D5487810B132
:10342000012812D03AE02068B0F8502010440A7801
:1034300000EB0210B0F80424C2F30902A0F804243F
:10344000B0F8042442F4004206E02068B0F850309E
:1034500018440B7800EB0310A0F804241EE04B780E
:10346000206813B1012B11D018E0B0F8502010449F
:103470000A7800EB0210B0F80C24C2F30902A0F89D
:103480000C24B0F80C2442F4004205E0B0F85030AF
:1034900018440B7800EB0310A0F80C24097802E024
:1034A000C1F818A0E9B22046FDF741FC03E032461E
:1034B0002046FDF716FD2068B0F8441009043FF5DA
:1034C00039AE0020BDE8F88F7047F8B50446406873
:1034D0004FF48273984217D1A0684FF48065B0F51D
:1034E000004F01D0A8420FD12068066826F04006A0
:1034F00006606068984207D1A068A84204D1009293
:103500000B460022012103E000920B46002280219D
:10351000204600F019F8002804D0606D40F020002B
:1035200060650320F8BD38B50B46009204460022C2
:10353000802100F009F8002804D0606D40F02000E0
:103540006065032038BD00002DE9F8431E46914612
:1035500088460446089DFDF731FA401B351AFDF7F1
:103560002DFA074625480068C0F3CB30684338E0A1
:10357000701C37D0FDF722FAC01BA84203D215B148
:10358000009860B32CE02068416821F0E0014160C0
:103590006068B0F5827F0BD1A068B0F5004F02D013
:1035A000B0F5806F04D12068016821F0400101600E
:1035B000A06AB0F5005F09D12068016821F40051CC
:1035C00001602068016841F400510160012084F825
:1035D0005100002084F850000320BDE8F883002546
:1035E000401E00902068816838EA010004D0002164
:1035F0004945BDD10020F0E70121F9E73400002062
:103600007047FDF7DDBA30B593B028216846FCF766
:1036100094FF14210AA8FCF790FF002401200F94C6
:1036200010941194010412948DE8130004904FF447
:10363000E010CDE90810022507956846FEF766F907
:1036400008B172B6FEE70F20CDE90A054FF480609D
:10365000CDE90C4002210AA80E94FEF77BF808B1D0
:1036600072B6FEE710200F9012940FA8FDF7FCFF32
:10367000002801D072B6FEE713B030BD70470000DD
:10368000F0B50268164B174C174D4FF08047984223
:1036900005D0B84203D0A04201D0A84203D122F005
:1036A00070064A683243984205D0B84203D0A0421F
:1036B00001D0A84203D122F44074CA6822434C6965
:1036C00022F08002224302608A68C2620A68826233
:1036D000984201D10969016301214161F0BD0000F7
:1036E000002C0140000400400008004010B5846830
:1036F00042EA032224F47F440A432243826010BD3D
:10370000826822F070020A4342F00701816070472C
:1037100030B5036A026A22F00102026242688469DB
:1037200024F073050C682C4323F002058B682B43AF
:103730000A4DA8420BD123F00805CB6822F4407251
:103740002B434D6923F0040315438A692A434260E1
:10375000846149684163036230BD0000002C014070
:1037600030B5026A036A23F0100303624368846978
:103770000D6824F4E64444EA05248D6822F0200212
:1037800042EA05120B4DA8420ED1CD6822F080020C
:1037900042EA05124D6923F4406343EA85038D69CB
:1037A00022F0400243EA85034360846149688163F3
:1037B000026230BD002C014030B5036A026A22F477
:1037C000807202624268C46923F4007324F07305B6
:1037D0000C682C438D6843EA05230C4DA8420ED19A
:1037E000CD6823F4006343EA05234D6922F4405277
:1037F00042EA05128D6923F4806342EA05124260B1
:10380000C4614968C163036230BD0000002C0140FF
:1038100030B5046A026A22F4805202624268C369C7
:103820000D6823F4E64343EA05238D6824F400542D
:1038300044EA0534064DA84204D14D6922F4804281
:1038400042EA85124260C36149680164046230BD86
:10385000002C014010B5036A046A24F001040462DC
:10386000846924F0F00444EA021423F00A020A43B3
:103870008461026210BD10B5036A046A24F010046A
:103880000462846923F0A00324F4704444EA023201
:1038900043EA01118261016210BD000070B5044667
:1038A00000680169E26821F4405111430161216916
:1038B000A0680843616908432168CA6841F20C6343
:1038C0009A430243CA6020684169A26921F44071A9
:1038D000114341611E492068884202D1FDF7E0FF93
:1038E00001E0FDF7CDFF00EBC00101EB00126068C5
:1038F00064218000B2FBF0F3B3FBF1F36FF0180624
:103900007343B2FBF0F5B2FBF0F605EB830532230F
:1039100003EB0515B5FBF1F5B6FBF1F605F0F00587
:1039200005EB0615B2FBF0F6B2FBF0F0B0FBF1F0E0
:103930006FF01802504306EB800003EB0010B0FB61
:10394000F1F0216800F00F002844886070BD00008D
:10395000003801402DE9F041984617460E460446CE
:10396000069D27E0681C25D02DB1FDF727F8A0EBB8
:103970000800A8421ED920680C3050E8001F21F42E
:10398000D07140E80012002AF5D12068143050E8C8
:10399000001F21F0010140E80012002AF5D120208B
:1039A00084F8410084F84200002084F8400003209D
:1039B000BDE8F0812068006836EA000004D00020ED
:1039C000B842CFD00020F3E70120F9E72DE9F0411C
:1039D000D0F8C032D0F8B822CAB101EB810500EBB3
:1039E00085040026E7693FB103EBC5039B6BB7FB7A
:1039F000F3F503FB157323B1C2F814620020BDE890
:103A0000F08100231A46E66100F07FFCF6E7022011
:103A1000F5E770B50546D0F8B84200F07AFBC4F877
:103A20000C02D5F8B80248B1D5F8BC12D4F804029B
:103A3000CA6804F503719047002070BD022070BD74
:103A400070B504460026812100F0B6FA0025012158
:103A50002046E56200F0B0FA82212046C4F86C519D
:103A600000F0AAFA2564D4F8B80248B1D4F8BC0230
:103A700004F52E7440688047206800F016FE25602B
:103A8000304670BD10B5D0E9AE4159B194F800028E
:103A9000FF2807D08B6894F8012221469847FF2021
:103AA00084F80002002010BD0A2101800048704700
:103AB000C000002043210180004870471001002011
:103AC0004321018000487047CC0000204321018041
:103AD00000487047540100202DE9F04104460026BB
:103AE000007C4FF40077012590B34023022281210E
:103AF000204600F063FB4023E562022201212046BC
:103B000000F05CFB0823032282212046C4F86C519C
:103B100000F054FB4FF40770256400F0C7FDC4F8B3
:103B2000B802F8B10546D4F8BC020068804700200E
:103B3000C5F81402C5F81802207CD5F8042298B103
:103B400040230121204600F045FB3046BDE8F081CE
:103B5000FFE73B4602228121204600F02FFB3B4637
:103B6000E562CAE70126F0E73B46EAE710B5D0F880
:103B7000B81269B1027C002AD1F8042205D0402392
:103B8000012100F027FB002010BD4FF40073F7E780
:103B9000022010BD02460220002902D00020C2F8F7
:103BA000BC127047D0F8B802C0F804120020704769
:103BB000D0F8B802C0F81022C0F8081200207047F0
:103BC0002DE9FC410546D0F8B87200208DF80000C0
:103BD000ADF80400064608780C4610F0600121D0CC
:103BE00020293BD1E288AAB10006607807D5D5F834
:103BF000BC128B6839469847E288394626E087F838
:103C00000002A07987F80102E2883946284600F0D0
:103C10006AF828E0D5F8BC12607800228B6821464B
:103C2000984720E0607820B10A2809D00B2815D1E8
:103C300010E095F89C02032810D1022201A905E0AA
:103C400095F89C02032809D101226946284600F014
:103C500064F808E095F89C02032804D02146284621
:103C600000F036F802263046BDE8FC8110B5D0F8E9
:103C7000B812A1B1D1F814220AB1012010BD01225D
:103C8000C1F81422D1F810220263B1F8102293B2C5
:103C9000D1F80822812100F038FB002010BD02205D
:103CA00010BD10B5D0F8B42252689047002010BD66
:103CB000134610B50A46002100F08CFA002010BD12
:103CC000134610B50A46002100F01FFB002010BD6E
:103CD00010B50446802100F0FDFA2046BDE81040F2
:103CE000002100F0F7BA10B50323C0F85C21C0F83A
:103CF0009432C0F8602113460A46002100F06AFAA7
:103D0000002010BD10B505210023C0F894121A46FA
:103D1000194600F05FFA002010BD10B50223C26101
:103D2000C0F89432026213460A46002100F0EDFA10
:103D3000002010BD10B504210023C0F894121A46CB
:103D4000194600F0E2FA002010BD000010B50A4646
:103D5000024903A000F0E2F8004810BDDC07002093
:103D600043444320436F6E66696700001220088059
:103D7000004870477000002010B50A46024903A0B1
:103D800000F0CCF8004810BDDC070020434443207D
:103D9000496E7465726661636500000004200880E6
:103DA000004870476C00002010B50A46024903A085
:103DB00000F0B4F8004810BDDC07002053544D69F2
:103DC00063726F656C656374726F6E696373000014
:103DD00010B50A46024903A000F0A0F8004810BD43
:103DE000DC07002053544D333220566972747561DC
:103DF0006C20436F6D506F727400000010B51A2074
:103E000008800A480168001D0468001D0068081841
:103E100009D008220649FEF7E9FC054904221031C1
:103E20002046FEF7E3FC0248801E10BDE8F7FF1FA6
:103E300086000020F8B504460020ADF80000488850
:103E40000D46010A082948D2DFE801F047040917A6
:103E500047473C45D4F8B012207C0A6819E0207C22
:103E600002260028D4F8B40205D0C16A6846884703
:103E7000014646703EE0816AF8E7C0B206282CD2BF
:103E8000DFE800F0030A1014181CD4F8B0024268EE
:103E900005E0694690471CE0D4F8B0028268E2B1C0
:103EA000207CF6E7D4F8B002C268F8E7D4F8B00294
:103EB0000269F4E7D4F8B0024269F0E7D4F8B0023E
:103EC0008269ECE7207C40B9D4F8B402416B6846C3
:103ED000884701460EE0207C20B129462046FFF7A6
:103EE000F7FEF8BDD4F8B402016B68468847014676
:103EF00007204870BDF8000048B1EA8852B18242FC
:103F000000D90246ADF800202046FFF706FFE888FA
:103F10000028E6D12046FFF70DFFF8BD70B500235D
:103F200000281ED00446002502E06D1CEDB2641C82
:103F30002678002EF9D1022404EB4504148012786F
:103F4000CA545B1C0322CA5400245B1C06E0CA54FA
:103F50005B1CDAB28C54521CD3B2401C0278002A8B
:103F6000F5D170BD01004FF0000004D0012901D04F
:103F7000022901D0022070470120704710B580B19E
:103F8000D0F8B43213B10023C0F8B43209B1C0F88C
:103F9000B012012180F89C12027000F0BFF80020DE
:103FA00010BD022010BD10B5D0F8C002FCF7F8FE1D
:103FB000BDE81040FFF7D6BF10B5D0F8C002FCF73F
:103FC000C9FEBDE81040FFF7CDBF2DE9F04117460F
:103FD000044651B1D4F8B40242691AB194F89C0273
:103FE000032851D00220BDE8F081D4F89432002596
:103FF00004F11400022B03D0042B3AD0C3B33CE0ED
:10400000D0E903639E4207D9F11AC1608AB23946EA
:104010002046FFF755FE12E08068B0FBF3F103FB8A
:10402000110199B9984211D3D4F8981288420DD24F
:10403000002211462046FFF743FEC4F898520023A1
:104040001A461946204600F0C5F816E0D4F8B40226
:10405000C16829B194F89C02032801D12046884701
:104060008021204600F036F92046FFF74BFE04E0A1
:10407000FFE78021204600F02DF994F8A0020128E6
:1040800004D184F8A05201E0204690470020AAE71E
:1040900070B51546044649B1D4F8B40282691AB124
:1040A00094F89C02032830D0022070BDD4F89412FA
:1040B00004F5AA70032902D005291ED027E0D0E913
:1040C00003218A420BD9531AC3600846834200D3A6
:1040D00003469AB229462046FFF7EAFD17E0D4F8D6
:1040E000B402016929B194F89C02032801D1204649
:1040F00088472046FFF71EFE09E000200146C4F86D
:104100009402204600F0E6F801E0204690470020A7
:1041100070BDD0F8C002FDF780B8000010B50446AD
:104120001C481D49C0F8EC42C4F8C00201600821D7
:1041300041600221816000218161C1610162FDF75E
:10414000A5F908B1FCF72FFB0022D4F8C002182310
:10415000114604F53074FCF7CBFD58230022802172
:104160002068FCF7C5FDC023002281212068FCF7F0
:10417000BFFD4FF48873002201212068FCF7B8FDD1
:104180004FF48073002282212068FCF7B1FD0020EB
:1041900010BD0000FC0C0020005C00400A0601F08D
:1041A0007F01D0F8C00201EB810100EBC10002D514
:1041B00090F82A00704790F86A01704710B51C46C5
:1041C0001346D0F8C0022246FDF730F8BDE8104093
:1041D000FFF7C8BE10B5D0F8C002FDF754F8BDE82F
:1041E0001040FFF7BFBE70B50022044640231146C1
:1041F000FFF7E4FF40260125C4F86461334600223E
:1042000080212046C4F85851FFF7D8FF6662A561A7
:1042100084F89C520020C4F894026060C4F8A402A0
:10422000D4F8B80228B1D4F8B4020021426820467C
:104230009047002070BD90F89C12042903D190F89B
:104240009D1280F89C120020704710B590F89C12C7
:10425000032904D1D0F8B412C96901B188470020FC
:1042600010BD01740020704710B5D0F8C002FDF7F2
:10427000B4F9BDE81040FFF775BE70B5044600F50F
:104280002A70054600F04AF80120C4F89402B4F8F8
:10429000AE02C4F8980294F8A80210F01F010AD0E8
:1042A00001290DD0022910D000F08001204600F035
:1042B00011F8002070BD2946204600F09EF8F8E76E
:1042C0002946204600F0CAF9F3E72946204600F0C7
:1042D0001DF9EEE710B5D0F8C002FCF7EBFFBDE822
:1042E0001040FFF73FBE10B5D0F8C002FDF790F9BF
:1042F000BDE81040FFF736BE90F89C1280F89D1282
:10430000042180F89C120020704710B5D0F8C0023C
:10431000FDF709F8BDE81040FFF724BE0A780270E7
:104320004A7842708A78CB7802EB032242800A797D
:104330004B7902EB032282808A79C97902EB012151
:10434000C18070470246002011B1C2F8B412704714
:104350000220704710B5D0F8B42202241AB11268B6
:10436000904700B90024204610BD000070B50E46ED
:104370001E4D897804462970012931D894F89C0291
:1043800002280BD003280FD031462046FFF7A0FCAF
:1043900029782046BDE87040FFF783BCD9B10320DF
:1043A000616084F89C0209E071B16068884212D0B3
:1043B000C1B22046FFF775FC297861602046FFF7FF
:1043C000C9FF02280CD006E0022084F89C02204697
:1043D0006160FFF766FC2046BDE87040FFF7AABCAD
:1043E00031462046BDE87040FFF772BCBC0000209B
:1043F00010B5FFF778FF002010BD2DE9F0410A78D5
:10440000002612F0600208D0202A01D0402A70D184
:10441000D0F8B422926890476DE04B7800220125D5
:104420000A2B66D2DFE803F0405D65576508056535
:104430002C29FFF7FFFC5EE004468888D8B9C888BD
:10444000C8B94888802816D200F07F0794F89C02EB
:10445000032810D084F89E7239462046FFF704FFE7
:104460002046FFF767FC1FB1022084F89C0242E05F
:1044700084F89C523FE020463BE0FFF777FF3AE0AC
:10448000CB88012B35D190F89C32012B04D0022B24
:1044900002D0032B2DD104E08260012200F108013B
:1044A00016E00122011D13E090F89C22012A03D09E
:1044B000022A01D0032A1CD1CA88022A19D1C56058
:1044C000D0F8A41209B10321C160022200F10C014D
:1044D000FFF723FC0FE0498801290CD1C0F8A45252
:1044E00011E090F89C32012B08D0022B06D0032B50
:1044F00004D0FFF7EDFB3046BDE8F0814988012983
:10450000F9D1C0F8A422FFF715FCF4E72DE9F0413A
:104510000A46044610780027097910F060030AD093
:10452000202B01D0402B50D1D4F8B402114683681F
:10453000204698478FE0C0F34110012806D05078FC
:10454000D0B301282AD003283FD107E0D4F8B40221
:10455000114683682046BDE8F041184794F89C0254
:10456000022802D0032872D10AE071B380296ED0EC
:104570002046FFF7AFFE80212046FFF7ABFE6AE042
:10458000508838B931B1802904D0D08810B920467C
:10459000FFF7A0FE2046FFF7CDFB5CE094F89C02FD
:1045A0000228E2D0032852D1508898BB4806F1D0A7
:1045B0002046FFF7F8FCEDE7FFE794F89C020026A1
:1045C000022803D0032842D112E040E009B180293B
:1045D0003DD1080601F07F0000EB800004EB800174
:1045E00001D5143101E001F5AA7102220E602AE022
:1045F000080601F00F0000EB800004EB80000AD5F4
:10460000806920B301F07F0000EB800004EB80059F
:1046100014350BE01FE0D0F85801C0B101F07F0065
:1046200000EB800004EB800505F5AA7541B18029F7
:1046300006D02046FFF7B2FD10B10120286000E04F
:104640002E60022229462046FFF767FB03E0114651
:104650002046FFF73DFB3846BDE8F08170B50546C2
:1046600008780C4610F0600003D0202801D04028C4
:1046700016D195F89C02012803D0022801D0032806
:104680000ED1207901280BD8D5F8B40282682846CB
:104690009047E188014306D12846FFF74BFB02E033
:1046A0002846FFF715FB002070BD70470048704793
:1046B000DC0A00202DE9F0470C78002630F8243081
:1046C00048F68F121340CA78002A78D0012A7CD08D
:1046D000022A02D0032A75D0012648F28002134331
:1046E00020F824300D7830F8253048F68F742340B8
:1046F0002B43134320F825300D7B48F2C00948F6C0
:10470000BF734CF2800A4BF68F77EDB3CD7891F8FA
:1047100000C0022D30F82C507DD048F68F6805EA95
:104720000805154320F82C50B0F8505091F800C0FF
:10473000054405EB0C15B1F808C02CF0010CA5F8E8
:1047400000C4B0F8505091F800C0054405EB0C15BA
:10475000B1F80AC02CF0010CA5F808C44D78002D62
:104760007ED00D7830F825C05FEA4C4C07D530F884
:1047700025C00CEA040C4CEA0A0C20F825C091F87C
:1047800000C030F82C5000E022E06D0606D530F86D
:104790002C50254045EA090520F82C50CC780D789E
:1047A000012C30F8254004EA03047CD084F0200377
:1047B000134320F82530C1E001E006E002E043F4B5
:1047C00000738AE743F4C06387E743F4806384E7B8
:1047D0004D784DB3B0F850500F78054405EB0715F0
:1047E000CF8827F00107A5F800740F7830F827501C
:1047F0006D0606D530F82750254045EA090520F812
:104800002750CC78012C07D00C7830F824101940B0
:1048100081F0200104E064E00C7830F824101940A5
:10482000114320F8241090E0B0F850300D78034484
:1048300003EB0513CD8825F00105A3F80854B0F863
:1048400050300D78034403EB0513B3F80C54C5F353
:104850000905A3F80C540D6903F20C433E2D00E04A
:1048600045E00BD94FEA551CED0601D1ACF1010C26
:104870001D884FF4004848EA8C2C0BE035B34FEA12
:10488000550CED0701D00CF1010C1D884FF6FF7897
:1048900008EA8C2C45EA0C051D800D7830F825308F
:1048A0005B0408D500E046E030F82530234043EAB9
:1048B0000A0320F82530097861B130F821303B40F7
:1048C00083F40053134320F821303EE01D8845F463
:1048D0000045E1E70188394081F4405111430180EE
:1048E00033E0254048F2801845EA08051AE791F8B8
:1048F00000C030F82C506D0406D530F82C502540FF
:1049000045EA0A0520F82C5091F800C030F82C50E8
:104910006D0606D530F82C50254045EA090520F8EB
:104920002C500D7830F825403C4084F4405414431A
:1049300020F8254070E7144320F825400B7830F824
:1049400023103940114320F823103046BDE8F0878A
:10495000002070472DE9F04391F80C804F780A78D9
:1049600048F6BF7C4BF68F7948F2800348F2C005C9
:104970004CF2800648F68F74B8F1000F28D0002F53
:1049800030F822704FEA474748D0002F05DA30F858
:1049900022702740374320F822700A7830F82270BE
:1049A0007F0605D530F8227027402F4320F822706B
:1049B0000D7830F825202240324320F825200C784D
:1049C00030F8242002EA0C021A4320F824201AE0CE
:1049D0007FB130F82260760605D530F82260264097
:1049E0002E4320F822600A7830F8221001EA0C01E8
:1049F0000EE030F822506D0405D530F822502540E5
:104A0000354320F822500A7830F8221001EA0901D3
:104A1000194320F822100020BDE8F083002F05DAAA
:104A200030F822702740374320F822700A7830F897
:104A30002260760605D530F8226026402E4320F805
:104A400022600E7830F8262022402A4320F82620C3
:104A50000C7830F8242002EA09021A4320F82420B6
:104A6000C1E70020704700207047012120F8401F57
:104A700000210180818001820846704730F8401F84
:104A800021F43F410180002070470020704730B57D
:104A90000A7BB2BB4A7848F68F7548F28004C2B1EF
:104AA0000B7830F82320520607D530F823202A400F
:104AB00048F2C0052A4320F82320CA78012A20D0D2
:104AC0000A7830F8221048F6BF73194081F02001AF
:104AD00014E00A7830F822305B0407D530F8223031
:104AE0002B404CF280052B4320F822300A7830F816
:104AF00022104BF68F73194081F44051214320F866
:104B00002210002030BD10B54A780978002A48F2FA
:104B1000800330F8212005D048F6BF74224082F08F
:104B2000100204E04BF68F74224082F480521A4344
:104B300020F82120002010BD2DE9F0470D464B78CC
:104B4000097B04464FF0000948F68F7248F2800A4C
:104B50004FF400474FF6FF78012B09D000296FD0A2
:104B6000E87802286DD001286CD00120BDE8F087DC
:104B7000AE692869864200D9064691B1E9780229D2
:104B80001ED0286A801B2862287834F82010490635
:104B9000B4F85010214401EB001073D5A0F80C6458
:104BA00016E1B3B2EA882046696900F067FAB4F802
:104BB00050002978204400EB0110A0F804640DE1B6
:104BC000296A814277D9297834F82100104048F2C7
:104BD0008012104324F82100286A801B286228785C
:104BE00034F820104906697871D511B101292AD00D
:104BF00030E0B4F85010214401EB0010B0F80C1470
:104C0000C1F30901A0F80C1400F20C403E2E07D9A4
:104C10007109F20600D1491E028847EA812107E0A6
:104C20004EB17108F20700D0491C028808EA8121C0
:104C30000A4302800EE0018841F40041018009E04E
:104C4000F1E020E195E1B4F85020111901EB0010DA
:104C5000A0F80C646A89B3B22046696900F00EFAC4
:104C60006869304468612969286A884202D9801BD2
:104C7000286202E00646C5F82090687818B101283D
:104C80002BD032E02FE0B4F850002978204400EB1C
:104C90000110B0F80414C1F30901A0F8041400F2E3
:104CA00004403E2E08D97109F20600D1491E02883F
:104CB00047EA812108E0A1E056B17108F20700D06F
:104CC000491C028808EA81210A4302800DE00EE0B7
:104CD000018841F40041018007E0B4F850002978D0
:104CE000204400EB0110A0F804642A8971E011B19E
:104CF000012927D02DE0B4F85010214401EB001019
:104D0000B0F80414C1F30901A0F8041400F204403F
:104D10003E2E07D97109F20600D1491E028847EAE2
:104D2000812107E04EB17108F20700D0491C0288CA
:104D300008EA81210A4302800BE0018841F4004126
:104D4000018006E0B4F85010214401EB0010A0F8F7
:104D500004642A89B3B22046696900F08FF9686952
:104D6000304468612969286A884202D9801B286218
:104D700002E00646C5F82090687810B1012836D0C8
:104D800026E0B4F850002978204400EB0110B0F878
:104D90000C14C1F30901A0F80C1400F20C403E2ED3
:104DA00007D97109F20600D1491E028847EA81211C
:104DB00007E04EB17108F20700D0491C028808EAEA
:104DC00081210A43028003E0018841F4004101800F
:104DD0006A89B3B22046696900F050F9297834F83D
:104DE000210048F6BF72104080F030000FE1B4F8A7
:104DF00050100819297800EB0110CFE62A7834F812
:104E0000220048F68F63184040EA0A0024F8220086
:104E1000B4F850002A78204400EB02108BB2A0F8BE
:104E200004342A89D6E7A9692869814202D9091A76
:104E3000A96102E00846C5F81890B4F850102A7825
:104E4000214401EB0211B1F80C24C2F30902A1F8CC
:104E50000C2401F20C413E287DD94209C00600D144
:104E6000521E088847EA82220AE0088840F400407F
:104E700007E04208C00700D0521C088808EA8222D6
:104E800010430880BBE033BBB4F8500029782044BD
:104E900000EB0110B0F80414C1F30901A0F80414E8
:104EA000296900F204403E2907D94B09C90600D1FF
:104EB0005B1E018847EA832307E041B14B08C9071D
:104EC00000D05B1C018808EA8323194302E00188B3
:104ED00041F400410180687810B1012828D030E009
:104EE000B4F850002978204400EB0110B0F80C14FD
:104EF000C1F30901A0F80C14296900F20C403E2905
:104F000007D94B09C90600D15B1E018847EA8323F4
:104F100007E041B14B08C90700D05B1C018808EAD3
:104F20008323194302E0018841F40041018008E035
:104F3000B4F850100819297800EB0110298AA0F85C
:104F40000C14E869C0B3297834F82100430401D572
:104F5000430605D400E046E044F2400318424ED137
:104F600034F82100104048F2C002104324F8210018
:104F700045E0A9692869814202D9091AA96102E0BC
:104F80000846C5F8189013BBB4F850102A7821448D
:104F900001EB0211B1F80424C2F30902A1F80424C0
:104FA00001F204413E2808D94209C30600D1521E2D
:104FB0000B8847EA822208E021E078B14208C30763
:104FC00000D0521C0B8808EA822213430B806978B8
:104FD00000293FF42EAF012909D010E00A8842F4DD
:104FE00000420A80F3E700287FF443AF3DE7B4F8BE
:104FF000502011192A7801EB0211A1F80C0429782C
:1050000034F821004BF68F72104080F4405040EA93
:105010000A0024F821000020A8E50021A0F844108F
:105020004FF43F41A0F84010002070470148FCF7C2
:1050300093B90000FC0C0020B0F844007047000059
:1050400010B500EB42005C0800F5806009D000BF9D
:1050500030F8042B01F8012B120A01F8012B641E11
:10506000F6D1DA0701D00088087010BD0020704723
:1050700011B98021A0F84C100020704710B55B1CBE
:1050800000EB42005B0800F5806009D011F8012BAD
:1050900011F8014B42EA042220F8042B5B1EF5D1E3
:1050A00010BDFEE70907090E002804DB00F1E0202F
:1050B00080F80014704700F00F0000F1E02080F845
:1050C000141D704730380A2801D201207047002093
:1050D0007047000010B50188438819448AB2002146
:1050E00007E000BF00EB4104491CA488C9B2224478
:1050F00092B28B42F6D8D0B210BD0000B0B0FBF730
:1051000067FDFEF780FAFDF78DFBFDF7DFFBFDF78E
:10511000FFFB914C8F48002520604FF4E130C4E93B
:1051200001050C20E560C4E90450A5612046E56155
:10513000FDF79BFA08B172B6FEE787488749F43855
:105140004FF4804201608649C0E90115C0E903526D
:1051500045618561C561A8460562FBF735FC08B16C
:1051600072B6FEE7FDF746FC7B493622A03915A84A
:10517000FBF7B1F9784DA03DE88EADF88A0005F156
:105180002C00C1682391008AADF89000E88FADF83B
:105190009200112205F1400125A8FBF79CF995F832
:1051A00051008DF8A500686D2A90542216A9684612
:1051B000FBF791F9082210216A48159BFDF782FC44
:1051C000262265490EA8FBF786F9E08CADF85E0053
:1051D00005F1AC00C1691891008CADF86400E08D58
:1051E000ADF86600206B1A90606B1B90092205F1E8
:1051F000D8011CA8FBF76FF994F841008DF87900ED
:1052000094F842008DF87A00606C1F90382212A941
:105210006846FBF760F90DF1380C9CE80F0000F0D0
:10522000AFF800F0B9F80120FDF70CFE3420FDF7CF
:1052300024FE2020FDF774FE4B4C0020D4E902230D
:10524000FDF73CFDD4E904230120FDF737FD4FF4C1
:105250007A794846FBF7AAFA444F05F5D87500BF9E
:10526000FDF76EFE3220FBF7A1FA3F48FDF712FC76
:1052700098B3207810B101281DD03BE0364820219A
:105280004830FDF768FD3448483000F06DFC324E80
:1052900037A148362BA8B288FAF7BEFF308818B974
:1052A00028E06420FBF782FA08212BA8FBF764FAB8
:1052B0000128F6D01BE028482021AC30FDF74BFD3B
:1052C0002548AC3000F050FC234E2AA1AC362DA866
:1052D000B288FAF7A1FF308818B90BE06420FBF719
:1052E00065FA08212DA8FBF747FA0128F6D04846B1
:1052F000FBF75CFA38780128B2D1FDF768FE1E4E44
:10530000012030800220708028783038B0806878A2
:105310003038F0803046FFF7DDFE3081D4E90801F7
:10532000FDF7F8FC20213046FDF774FED4E90601B4
:10533000FDF7F0FC20213046FDF76CFE0F49002000
:105340000A68414601E02954401C9042FBD3397061
:1053500086E7000000380140C402002000540040ED
:10536000A08601000008014000000020A1000020EC
:10537000312564003225640038040020A400002098
:105380000FB4482210B502A90248FBF7A4F810BCDC
:105390005DF814FBD004002010B5A0B0F4A104A85F
:1053A000FAF73AFF04A8FBF777F882B20A2304A9B8
:1053B000FC48FDF7CDF90020FDF702FD01077AD585
:1053C000400701D5F8A100E0FEA104A8FAF724FFE8
:1053D00004A8FBF761F882B20A2304A9F148FDF79B
:1053E000B7F90120FDF7ECFCC0F34014C0F3001343
:1053F000C0F3C002C0F380018DE81E0000F001027E
:10540000C0F34003F64904A8FAF706FF04A8FBF727
:1054100043F882B20A2304A9E248FDF799F9022071
:10542000FDF7CEFCC0F34014C0F30013C0F3C0027C
:10543000C0F380018DE81E0000F00102C0F34003BC
:10544000E84904A8FAF7E8FE04A8FBF725F882B2B9
:105450000A2304A9D348FDF77BF90320FDF7B0FC2C
:1054600000F00302E0A104A8921CFAF7D5FE04A8FC
:10547000FBF712F882B20A2304A9CA48FDF768F9BB
:105480000520FDF79DFC00F07F02DEA104A8FAF7DD
:10549000C3FE04A8FBF700F882B20A2304A9C1489E
:1054A000FDF756F90620FDF78BFC0446000704D5EE
:1054B000D9A103E0FFE7DEA187E7E2A104A8FAF79C
:1054C000ABFE04A8FAF7E8FF82B20A2304A9B548A4
:1054D000FDF73EF9032010EA540006D0012806D05B
:1054E000022806D0032806D009E0DCA104E0E0A1F0
:1054F00002E0E4A100E0E8A104A8FAF78DFE04A808
:10550000FAF7CAFF82B20A2304A9A648FDF720F9D8
:1055100005221DA90A20FDF773FC9DF876009DF871
:1055200074209DF875108DE807009DF877309DF880
:105530007820DEA104A8FAF76FFE04A8FAF7ACFF02
:1055400082B20A2304A99748FDF702F905221DA992
:105550000B20FDF755FC9DF876009DF874209DF812
:1055600075108DE807009DF877309DF87820DBA155
:1055700004A8FAF751FE04A8FAF78EFF82B20A23B4
:1055800004A98848FDF7E4F801221DA90C20FDF7C5
:1055900037FC9DF87420DDA104A8FAF73DFE04A8AD
:1055A000FAF77AFF82B20A2304A97E48FDF7D0F801
:1055B00001221DA90D20FDF723FC9DF87420DDA11B
:1055C00004A8FAF729FE04A8FAF766FF82B20A23B4
:1055D00004A97448FDF7BCF801221DA90E20FDF7AF
:1055E0000FFC9DF87420DDA104A8FAF715FE04A8AD
:1055F000FAF752FF82B20A2304A96A48FDF7A8F815
:1056000001221DA90F20FDF7FBFB9DF87420DDA1F1
:1056100004A8FAF701FE04A8FAF73EFF82B20A23B3
:1056200004A96048FDF794F805221DA91020FDF794
:10563000E7FB9DF876009DF874209DF875108DE8C5
:1056400007009DF877309DF87820D8A104A8FAF7D4
:10565000E3FD04A8FAF720FF82B20A2304A9514807
:10566000FDF776F81120FDF7ABFB00F03F02DAA161
:1056700004A8FAF7D1FD04A8FAF70EFF82B20A23B4
:1056800004A94848FDF764F81220FDF799FB00F0E3
:105690003F02D8A104A8FAF7BFFD04A8FAF7FCFE60
:1056A00082B20A2304A93F48FDF752F81320FDF700
:1056B00087FB00F03F02D6A104A8FAF7ADFD04A8CD
:1056C000FAF7EAFE82B20A2304A93648FDF740F849
:1056D0001420FDF775FB00F03F02D4A104A8FAF7EF
:1056E0009BFD04A8FAF7D8FE82B20A2304A92D482C
:1056F000FDF72EF81520FDF763FB00F03F02D2A165
:1057000004A8FAF789FD04A8FAF7C6FE82B20A23B4
:1057100004A92448FDF71CF81620FDF751FB00F002
:105720003F02D0A104A8FAF777FD04A8FAF7B4FE67
:1057300082B20A2304A91B48FDF70AF81C20FDF7D2
:105740003FFBC0F34014C0F30013C0F3C002C0F32A
:1057500080018DE81E0000F00102C0F34003C8493B
:1057600004A8FAF759FD04A8FAF796FE82B289E177
:105770000D0A2A2A2A2A2A2A2A2A2A2A2A2A2A2AC6
:105780002A2A2A2A2A2A2A2A2A2A2A2A2A2A2A2A79
:105790002A2A2A2A2A2A2A2A2A2A2A2A2A2A2A2A69
:1057A0000D0A0000D00400204352433A0D0A0909B3
:1057B000456E61626C65642C203220427974657399
:1057C000200D0A004352433A0D0A0909456E6162F1
:1057D0006C65642C20312042797465200D0A00002C
:1057E000F85B00083C5C000853455455505F415736
:1057F0003A0D0A09092564206279746573200D0A3F
:105800000000000052465F43483A0D0A090925642A
:10581000204348200D0A00004461746120526174E5
:10582000653A0D0A0909324D627073200D0A0000B5
:105830004352433A0D0A090944697361626C656415
:10584000200D0A004461746120526174653A0D0AAA
:105850000909314D627073200D0A000052465F50F5
:1058600057523A0D0A09092D31386442200D0A00B9
:1058700052465F5057523A0D0A09092D313264429F
:10588000200D0A0052465F5057523A0D0A09092D61
:10589000366442200D0A000052465F5057523A0DBE
:1058A0000A0909306442200D0A00000052585F5076
:1058B000697065302041646472733A0D0A090925E4
:1058C0003032582C253032582C253032582C253087
:1058D00032582C2530325820200D0A0052585F5083
:1058E000697065312041646472733A0D0A090925B3
:1058F0003032582C253032582C253032582C253057
:1059000032582C2530325820200D0A0052585F5052
:10591000697065322041646472733A0D0A0909782E
:10592000782C78782C78782C78782C253032582080
:10593000200D0A0052585F5069706533204164643D
:1059400072733A0D0A090978782C78782C78782CBB
:1059500078782C2530325820200D0A0052585F509C
:10596000697065342041646472733A0D0A090978DC
:10597000782C78782C78782C78782C253032582030
:10598000200D0A0052585F506970653520416464EB
:1059900072733A0D0A090978782C78782C78782C6B
:1059A00078782C2530325820200D0A005458204198
:1059B000646472733A0D0A0909253032582C253077
:1059C00032582C253032582C253032582C25303284
:1059D0005820200D0A00000052585F50575F503089
:1059E0003A0D0A09092564206279746573200D0A4D
:1059F0000000000052585F50575F50313A0D0A09BD
:105A0000092564206279746573200D0A0000000086
:105A100052585F50575F50323A0D0A0909256420E9
:105A20006279746573200D0A0000000052585F50BF
:105A3000575F50333A0D0A0909256420627974656D
:105A400073200D0A0000000052585F50575F503419
:105A50003A0D0A09092564206279746573200D0ADC
:105A60000000000052585F50575F50353A0D0A0948
:105A7000092564206279746573200D0A0000000016
:105A8000885C00080A2304A91C48FCF761FE1D205D
:105A9000FDF796F90446400701D519A100E01EA1C3
:105AA00004A8FAF7B9FB04A8FAF7F6FC82B20A23B5
:105AB00004A91248FCF74CFEA00701D51CA100E088
:105AC00022A104A8FAF7A8FB04A8FAF7E5FC82B221
:105AD0000A2304A90948FCF73BFEAFF26C3104A885
